{
  "_format": "hh-sol-artifact-1",
  "contractName": "BatchRegistry",
  "sourceName": "contracts/BatchRegistry.sol",
  "abi": [
    {
      "inputs": [
        {
          "internalType": "address",
          "name": "initialOwner",
          "type": "address"
        },
        {
          "internalType": "address",
          "name": "_farmerRegistry",
          "type": "address"
        }
      ],
      "stateMutability": "nonpayable",
      "type": "constructor"
    },
    {
      "inputs": [
        {
          "internalType": "address",
          "name": "owner",
          "type": "address"
        }
      ],
      "name": "OwnableInvalidOwner",
      "type": "error"
    },
    {
      "inputs": [
        {
          "internalType": "address",
          "name": "account",
          "type": "address"
        }
      ],
      "name": "OwnableUnauthorizedAccount",
      "type": "error"
    },
    {
      "anonymous": false,
      "inputs": [
        {
          "indexed": true,
          "internalType": "string",
          "name": "batchId",
          "type": "string"
        },
        {
          "indexed": false,
          "internalType": "string",
          "name": "anomalyType",
          "type": "string"
        }
      ],
      "name": "AnomalyFlagged",
      "type": "event"
    },
    {
      "anonymous": false,
      "inputs": [
        {
          "indexed": true,
          "internalType": "string",
          "name": "batchId",
          "type": "string"
        },
        {
          "indexed": true,
          "internalType": "address",
          "name": "farmer",
          "type": "address"
        },
        {
          "indexed": false,
          "internalType": "string",
          "name": "produceType",
          "type": "string"
        },
        {
          "indexed": false,
          "internalType": "uint256",
          "name": "originWeight",
          "type": "uint256"
        }
      ],
      "name": "BatchCreated",
      "type": "event"
    },
    {
      "anonymous": false,
      "inputs": [
        {
          "indexed": true,
          "internalType": "string",
          "name": "batchId",
          "type": "string"
        },
        {
          "indexed": false,
          "internalType": "uint256",
          "name": "disputeId",
          "type": "uint256"
        }
      ],
      "name": "BatchDisputed",
      "type": "event"
    },
    {
      "anonymous": false,
      "inputs": [
        {
          "indexed": true,
          "internalType": "string",
          "name": "batchId",
          "type": "string"
        }
      ],
      "name": "BatchExpired",
      "type": "event"
    },
    {
      "anonymous": false,
      "inputs": [
        {
          "indexed": true,
          "internalType": "string",
          "name": "batchId",
          "type": "string"
        },
        {
          "indexed": true,
          "internalType": "address",
          "name": "node",
          "type": "address"
        },
        {
          "indexed": false,
          "internalType": "uint256",
          "name": "newFRS",
          "type": "uint256"
        },
        {
          "indexed": false,
          "internalType": "string",
          "name": "grade",
          "type": "string"
        }
      ],
      "name": "CustodyTransferred",
      "type": "event"
    },
    {
      "anonymous": false,
      "inputs": [
        {
          "indexed": true,
          "internalType": "string",
          "name": "batchId",
          "type": "string"
        },
        {
          "indexed": false,
          "internalType": "uint256",
          "name": "legDropBasisPoints",
          "type": "uint256"
        },
        {
          "indexed": false,
          "internalType": "address",
          "name": "responsibleNode",
          "type": "address"
        }
      ],
      "name": "FreshnessDegraded",
      "type": "event"
    },
    {
      "anonymous": false,
      "inputs": [
        {
          "indexed": true,
          "internalType": "address",
          "name": "previousOwner",
          "type": "address"
        },
        {
          "indexed": true,
          "internalType": "address",
          "name": "newOwner",
          "type": "address"
        }
      ],
      "name": "OwnershipTransferred",
      "type": "event"
    },
    {
      "inputs": [
        {
          "internalType": "uint256",
          "name": "",
          "type": "uint256"
        }
      ],
      "name": "allBatchIds",
      "outputs": [
        {
          "internalType": "string",
          "name": "",
          "type": "string"
        }
      ],
      "stateMutability": "view",
      "type": "function"
    },
    {
      "inputs": [
        {
          "internalType": "string",
          "name": "batchId",
          "type": "string"
        }
      ],
      "name": "batches",
      "outputs": [
        {
          "components": [
            {
              "internalType": "string",
              "name": "batchId",
              "type": "string"
            },
            {
              "internalType": "address",
              "name": "farmerWallet",
              "type": "address"
            },
            {
              "internalType": "string",
              "name": "produceType",
              "type": "string"
            },
            {
              "internalType": "enum ProduceCategory",
              "name": "category",
              "type": "uint8"
            },
            {
              "internalType": "uint256",
              "name": "originWeightGrams",
              "type": "uint256"
            },
            {
              "internalType": "uint256",
              "name": "originCount",
              "type": "uint256"
            },
            {
              "internalType": "string",
              "name": "originGPS",
              "type": "string"
            },
            {
              "internalType": "uint256",
              "name": "harvestTimestamp",
              "type": "uint256"
            },
            {
              "internalType": "uint256",
              "name": "pdeeTimestamp",
              "type": "uint256"
            },
            {
              "internalType": "uint256",
              "name": "currentFRS",
              "type": "uint256"
            },
            {
              "components": [
                {
                  "internalType": "address",
                  "name": "nodeWallet",
                  "type": "address"
                },
                {
                  "internalType": "string",
                  "name": "nodeName",
                  "type": "string"
                },
                {
                  "internalType": "uint256",
                  "name": "timestamp",
                  "type": "uint256"
                },
                {
                  "internalType": "uint256",
                  "name": "weightGrams",
                  "type": "uint256"
                },
                {
                  "internalType": "uint256",
                  "name": "frsBasisPoints",
                  "type": "uint256"
                },
                {
                  "internalType": "enum BatchRegistry.SealStatus",
                  "name": "seal",
                  "type": "uint8"
                },
                {
                  "internalType": "string",
                  "name": "ipfsVisualHash",
                  "type": "string"
                },
                {
                  "internalType": "string",
                  "name": "gpsLocation",
                  "type": "string"
                },
                {
                  "internalType": "enum BatchRegistry.NodeType",
                  "name": "nodeType",
                  "type": "uint8"
                },
                {
                  "internalType": "string",
                  "name": "grade",
                  "type": "string"
                },
                {
                  "internalType": "string",
                  "name": "label",
                  "type": "string"
                }
              ],
              "internalType": "struct BatchRegistry.CustodyRecord[]",
              "name": "custodyChain",
              "type": "tuple[]"
            },
            {
              "internalType": "bool",
              "name": "isDisputed",
              "type": "bool"
            },
            {
              "internalType": "bool",
              "name": "isExpired",
              "type": "bool"
            },
            {
              "internalType": "bool",
              "name": "isSettled",
              "type": "bool"
            },
            {
              "internalType": "bool",
              "name": "anomalyFlagged",
              "type": "bool"
            },
            {
              "internalType": "uint256",
              "name": "disputeId",
              "type": "uint256"
            }
          ],
          "internalType": "struct BatchRegistry.Batch",
          "name": "",
          "type": "tuple"
        }
      ],
      "stateMutability": "view",
      "type": "function"
    },
    {
      "inputs": [
        {
          "internalType": "address",
          "name": "node",
          "type": "address"
        }
      ],
      "name": "blacklistNode",
      "outputs": [],
      "stateMutability": "nonpayable",
      "type": "function"
    },
    {
      "inputs": [
        {
          "internalType": "address",
          "name": "",
          "type": "address"
        }
      ],
      "name": "blacklistedNodes",
      "outputs": [
        {
          "internalType": "bool",
          "name": "",
          "type": "bool"
        }
      ],
      "stateMutability": "view",
      "type": "function"
    },
    {
      "inputs": [
        {
          "internalType": "string",
          "name": "produceType",
          "type": "string"
        },
        {
          "internalType": "enum ProduceCategory",
          "name": "category",
          "type": "uint8"
        },
        {
          "internalType": "uint256",
          "name": "originWeightGrams",
          "type": "uint256"
        },
        {
          "internalType": "uint256",
          "name": "originCount",
          "type": "uint256"
        },
        {
          "internalType": "string",
          "name": "originGPS",
          "type": "string"
        },
        {
          "internalType": "string",
          "name": "ipfsVisualHash",
          "type": "string"
        },
        {
          "internalType": "string",
          "name": "nodeName",
          "type": "string"
        }
      ],
      "name": "createBatch",
      "outputs": [
        {
          "internalType": "string",
          "name": "batchId",
          "type": "string"
        }
      ],
      "stateMutability": "nonpayable",
      "type": "function"
    },
    {
      "inputs": [],
      "name": "disputeEngineAddress",
      "outputs": [
        {
          "internalType": "address",
          "name": "",
          "type": "address"
        }
      ],
      "stateMutability": "view",
      "type": "function"
    },
    {
      "inputs": [
        {
          "internalType": "address",
          "name": "",
          "type": "address"
        },
        {
          "internalType": "uint256",
          "name": "",
          "type": "uint256"
        }
      ],
      "name": "farmerBatches",
      "outputs": [
        {
          "internalType": "string",
          "name": "",
          "type": "string"
        }
      ],
      "stateMutability": "view",
      "type": "function"
    },
    {
      "inputs": [],
      "name": "farmerRegistry",
      "outputs": [
        {
          "internalType": "contract FarmerRegistry",
          "name": "",
          "type": "address"
        }
      ],
      "stateMutability": "view",
      "type": "function"
    },
    {
      "inputs": [],
      "name": "getAllActiveBatches",
      "outputs": [
        {
          "internalType": "string[]",
          "name": "",
          "type": "string[]"
        }
      ],
      "stateMutability": "view",
      "type": "function"
    },
    {
      "inputs": [
        {
          "internalType": "string",
          "name": "batchId",
          "type": "string"
        }
      ],
      "name": "getBatch",
      "outputs": [
        {
          "components": [
            {
              "internalType": "string",
              "name": "batchId",
              "type": "string"
            },
            {
              "internalType": "address",
              "name": "farmerWallet",
              "type": "address"
            },
            {
              "internalType": "string",
              "name": "produceType",
              "type": "string"
            },
            {
              "internalType": "enum ProduceCategory",
              "name": "category",
              "type": "uint8"
            },
            {
              "internalType": "uint256",
              "name": "originWeightGrams",
              "type": "uint256"
            },
            {
              "internalType": "uint256",
              "name": "originCount",
              "type": "uint256"
            },
            {
              "internalType": "string",
              "name": "originGPS",
              "type": "string"
            },
            {
              "internalType": "uint256",
              "name": "harvestTimestamp",
              "type": "uint256"
            },
            {
              "internalType": "uint256",
              "name": "pdeeTimestamp",
              "type": "uint256"
            },
            {
              "internalType": "uint256",
              "name": "currentFRS",
              "type": "uint256"
            },
            {
              "components": [
                {
                  "internalType": "address",
                  "name": "nodeWallet",
                  "type": "address"
                },
                {
                  "internalType": "string",
                  "name": "nodeName",
                  "type": "string"
                },
                {
                  "internalType": "uint256",
                  "name": "timestamp",
                  "type": "uint256"
                },
                {
                  "internalType": "uint256",
                  "name": "weightGrams",
                  "type": "uint256"
                },
                {
                  "internalType": "uint256",
                  "name": "frsBasisPoints",
                  "type": "uint256"
                },
                {
                  "internalType": "enum BatchRegistry.SealStatus",
                  "name": "seal",
                  "type": "uint8"
                },
                {
                  "internalType": "string",
                  "name": "ipfsVisualHash",
                  "type": "string"
                },
                {
                  "internalType": "string",
                  "name": "gpsLocation",
                  "type": "string"
                },
                {
                  "internalType": "enum BatchRegistry.NodeType",
                  "name": "nodeType",
                  "type": "uint8"
                },
                {
                  "internalType": "string",
                  "name": "grade",
                  "type": "string"
                },
                {
                  "internalType": "string",
                  "name": "label",
                  "type": "string"
                }
              ],
              "internalType": "struct BatchRegistry.CustodyRecord[]",
              "name": "custodyChain",
              "type": "tuple[]"
            },
            {
              "internalType": "bool",
              "name": "isDisputed",
              "type": "bool"
            },
            {
              "internalType": "bool",
              "name": "isExpired",
              "type": "bool"
            },
            {
              "internalType": "bool",
              "name": "isSettled",
              "type": "bool"
            },
            {
              "internalType": "bool",
              "name": "anomalyFlagged",
              "type": "bool"
            },
            {
              "internalType": "uint256",
              "name": "disputeId",
              "type": "uint256"
            }
          ],
          "internalType": "struct BatchRegistry.Batch",
          "name": "",
          "type": "tuple"
        }
      ],
      "stateMutability": "view",
      "type": "function"
    },
    {
      "inputs": [
        {
          "internalType": "address",
          "name": "farmer",
          "type": "address"
        }
      ],
      "name": "getBatchesByFarmer",
      "outputs": [
        {
          "internalType": "string[]",
          "name": "",
          "type": "string[]"
        }
      ],
      "stateMutability": "view",
      "type": "function"
    },
    {
      "inputs": [
        {
          "internalType": "string",
          "name": "batchId",
          "type": "string"
        }
      ],
      "name": "getCustodyChain",
      "outputs": [
        {
          "components": [
            {
              "internalType": "address",
              "name": "nodeWallet",
              "type": "address"
            },
            {
              "internalType": "string",
              "name": "nodeName",
              "type": "string"
            },
            {
              "internalType": "uint256",
              "name": "timestamp",
              "type": "uint256"
            },
            {
              "internalType": "uint256",
              "name": "weightGrams",
              "type": "uint256"
            },
            {
              "internalType": "uint256",
              "name": "frsBasisPoints",
              "type": "uint256"
            },
            {
              "internalType": "enum BatchRegistry.SealStatus",
              "name": "seal",
              "type": "uint8"
            },
            {
              "internalType": "string",
              "name": "ipfsVisualHash",
              "type": "string"
            },
            {
              "internalType": "string",
              "name": "gpsLocation",
              "type": "string"
            },
            {
              "internalType": "enum BatchRegistry.NodeType",
              "name": "nodeType",
              "type": "uint8"
            },
            {
              "internalType": "string",
              "name": "grade",
              "type": "string"
            },
            {
              "internalType": "string",
              "name": "label",
              "type": "string"
            }
          ],
          "internalType": "struct BatchRegistry.CustodyRecord[]",
          "name": "",
          "type": "tuple[]"
        }
      ],
      "stateMutability": "view",
      "type": "function"
    },
    {
      "inputs": [
        {
          "internalType": "string",
          "name": "produceType",
          "type": "string"
        }
      ],
      "name": "getNetworkInventory",
      "outputs": [
        {
          "internalType": "uint256",
          "name": "totalWeightGrams",
          "type": "uint256"
        },
        {
          "internalType": "uint256",
          "name": "activeBatchCount",
          "type": "uint256"
        }
      ],
      "stateMutability": "view",
      "type": "function"
    },
    {
      "inputs": [
        {
          "internalType": "string",
          "name": "batchId",
          "type": "string"
        },
        {
          "internalType": "uint256",
          "name": "_disputeId",
          "type": "uint256"
        }
      ],
      "name": "markDisputed",
      "outputs": [],
      "stateMutability": "nonpayable",
      "type": "function"
    },
    {
      "inputs": [],
      "name": "owner",
      "outputs": [
        {
          "internalType": "address",
          "name": "",
          "type": "address"
        }
      ],
      "stateMutability": "view",
      "type": "function"
    },
    {
      "inputs": [
        {
          "internalType": "string",
          "name": "",
          "type": "string"
        },
        {
          "internalType": "uint256",
          "name": "",
          "type": "uint256"
        }
      ],
      "name": "produceTypeTotalWeight",
      "outputs": [
        {
          "internalType": "uint256",
          "name": "",
          "type": "uint256"
        }
      ],
      "stateMutability": "view",
      "type": "function"
    },
    {
      "inputs": [
        {
          "internalType": "string",
          "name": "batchId",
          "type": "string"
        },
        {
          "internalType": "uint256",
          "name": "newWeightGrams",
          "type": "uint256"
        },
        {
          "internalType": "string",
          "name": "ipfsVisualHash",
          "type": "string"
        },
        {
          "internalType": "string",
          "name": "gpsLocation",
          "type": "string"
        },
        {
          "internalType": "string",
          "name": "nodeName",
          "type": "string"
        },
        {
          "internalType": "enum BatchRegistry.NodeType",
          "name": "nodeType",
          "type": "uint8"
        },
        {
          "internalType": "enum BatchRegistry.SealStatus",
          "name": "sealStatus",
          "type": "uint8"
        }
      ],
      "name": "recordCustodyTransfer",
      "outputs": [
        {
          "internalType": "uint256",
          "name": "newFRS",
          "type": "uint256"
        }
      ],
      "stateMutability": "payable",
      "type": "function"
    },
    {
      "inputs": [],
      "name": "renounceOwnership",
      "outputs": [],
      "stateMutability": "nonpayable",
      "type": "function"
    },
    {
      "inputs": [
        {
          "internalType": "address",
          "name": "addr",
          "type": "address"
        }
      ],
      "name": "setDisputeEngineAddress",
      "outputs": [],
      "stateMutability": "nonpayable",
      "type": "function"
    },
    {
      "inputs": [
        {
          "internalType": "address",
          "name": "newOwner",
          "type": "address"
        }
      ],
      "name": "transferOwnership",
      "outputs": [],
      "stateMutability": "nonpayable",
      "type": "function"
    }
  ],
  "bytecode": "0x60806040523480156200001157600080fd5b5060405162003c7a38038062003c7a833981016040819052620000349162000104565b816001600160a01b0381166200006457604051631e4fbdf760e01b81526000600482015260240160405180910390fd5b6200006f8162000097565b50600180546001600160a01b0319166001600160a01b0392909216919091179055506200013c565b600080546001600160a01b038381166001600160a01b0319831681178455604051919092169283917f8be0079c531659141344cd1fd0a4f28419497f9722a3daafe3b4186f6b6457e09190a35050565b80516001600160a01b0381168114620000ff57600080fd5b919050565b600080604083850312156200011857600080fd5b6200012383620000e7565b91506200013360208401620000e7565b90509250929050565b613b2e806200014c6000396000f3fe60806040526004361061011f5760003560e01c80637ef1446a116100a0578063c98ef08f11610064578063c98ef08f14610360578063ccbf363514610395578063d649daa8146103c2578063f2fde38b146103d5578063f9ca4274146103f557600080fd5b80637ef1446a146102a75780638da5cb5b146102d45780639a3c7e08146102f2578063afeb951a14610312578063bc7b6bd31461034057600080fd5b8063645d79c9116100e7578063645d79c91461021257806364e3ff53146102325780636a2e477e146102525780636b60a4a414610272578063715018a61461029257600080fd5b80630da80980146101245780631ddbe66b14610161578063290b17ec146101835780634b1a29eb146101b05780635685f2b2146101d2575b600080fd5b34801561013057600080fd5b50600154610144906001600160a01b031681565b6040516001600160a01b0390911681526020015b60405180910390f35b34801561016d57600080fd5b5061018161017c36600461306b565b610415565b005b34801561018f57600080fd5b506101a361019e366004613086565b61043f565b60405161015891906130ef565b3480156101bc57600080fd5b506101c56104eb565b6040516101589190613102565b3480156101de57600080fd5b506102026101ed36600461306b565b60086020526000908152604090205460ff1681565b6040519015158152602001610158565b34801561021e57600080fd5b5061018161022d36600461306b565b61072a565b34801561023e57600080fd5b506101a361024d366004613166565b610756565b34801561025e57600080fd5b5061018161026d366004613233565b61078e565b34801561027e57600080fd5b506101c561028d36600461306b565b6108b5565b34801561029e57600080fd5b506101816109a4565b3480156102b357600080fd5b506102c76102c2366004613278565b6109b8565b604051610158919061341e565b3480156102e057600080fd5b506000546001600160a01b0316610144565b3480156102fe57600080fd5b506101a361030d36600461357e565b61103f565b34801561031e57600080fd5b5061033261032d366004613233565b6114bd565b604051908152602001610158565b34801561034c57600080fd5b50600754610144906001600160a01b031681565b34801561036c57600080fd5b5061038061037b366004613278565b6114fd565b60408051928352602083019190915201610158565b3480156103a157600080fd5b506103b56103b0366004613278565b611648565b604051610158919061364f565b6103326103d0366004613671565b611a32565b3480156103e157600080fd5b506101816103f036600461306b565b611d3a565b34801561040157600080fd5b506102c7610410366004613278565b611d78565b61041d6123a8565b600780546001600160a01b0319166001600160a01b0392909216919091179055565b6005818154811061044f57600080fd5b90600052602060002001600091509050805461046a90613749565b80601f016020809104026020016040519081016040528092919081815260200182805461049690613749565b80156104e35780601f106104b8576101008083540402835291602001916104e3565b820191906000526020600020905b8154815290600101906020018083116104c657829003601f168201915b505050505081565b60606000805b60055481101561057d57600060026005838154811061051257610512613783565b906000526020600020016040516105299190613799565b908152604051908190036020019020600b81015490915060ff610100909104161580156105615750600b81015462010000900460ff16155b15610574578261057081613825565b9350505b506001016104f1565b5060008167ffffffffffffffff81111561059957610599613190565b6040519080825280602002602001820160405280156105cc57816020015b60608152602001906001900390816105b75790505b5090506000805b6005548110156107215760006002600583815481106105f4576105f4613783565b9060005260206000200160405161060b9190613799565b908152604051908190036020019020600b81015490915060ff610100909104161580156106435750600b81015462010000900460ff16155b15610718576005828154811061065b5761065b613783565b90600052602060002001805461067090613749565b80601f016020809104026020016040519081016040528092919081815260200182805461069c90613749565b80156106e95780601f106106be576101008083540402835291602001916106e9565b820191906000526020600020905b8154815290600101906020018083116106cc57829003601f168201915b50505050508484806106fa90613825565b95508151811061070c5761070c613783565b60200260200101819052505b506001016105d3565b50909392505050565b6107326123a8565b6001600160a01b03166000908152600860205260409020805460ff19166001179055565b6003602052816000526040600020818154811061077257600080fd5b9060005260206000200160009150915050805461046a90613749565b6007546001600160a01b031633146107e25760405162461bcd60e51b81526020600482015260126024820152714f6e6c792044697370757465456e67696e6560701b60448201526064015b60405180910390fd5b60006002836040516107f4919061383e565b90815260405190819003602001902060018101549091506001600160a01b03166108525760405162461bcd60e51b815260206004820152600f60248201526e10985d18da081b9bdd08199bdd5b99608a1b60448201526064016107d9565b600b8101805460ff19166001179055600c810182905560405161087690849061383e565b604051908190038120838252907f8df339503eb14a37d1a0e5259470ddce153ae0d45d3712dcfffc157228c089e59060200160405180910390a2505050565b6001600160a01b0381166000908152600360209081526040808320805482518185028101850190935280835260609492939192909184015b8282101561099957838290600052602060002001805461090c90613749565b80601f016020809104026020016040519081016040528092919081815260200182805461093890613749565b80156109855780601f1061095a57610100808354040283529160200191610985565b820191906000526020600020905b81548152906001019060200180831161096857829003601f168201915b5050505050815260200190600101906108ed565b505050509050919050565b6109ac6123a8565b6109b660006123d5565b565b6109c0612fb0565b6002826040516109d0919061383e565b9081526020016040518091039020604051806102000160405290816000820180546109fa90613749565b80601f0160208091040260200160405190810160405280929190818152602001828054610a2690613749565b8015610a735780601f10610a4857610100808354040283529160200191610a73565b820191906000526020600020905b815481529060010190602001808311610a5657829003601f168201915b505050918352505060018201546001600160a01b03166020820152600282018054604090920191610aa390613749565b80601f0160208091040260200160405190810160405280929190818152602001828054610acf90613749565b8015610b1c5780601f10610af157610100808354040283529160200191610b1c565b820191906000526020600020905b815481529060010190602001808311610aff57829003601f168201915b5050509183525050600382015460209091019060ff166002811115610b4357610b436132b5565b6002811115610b5457610b546132b5565b81526020016004820154815260200160058201548152602001600682018054610b7c90613749565b80601f0160208091040260200160405190810160405280929190818152602001828054610ba890613749565b8015610bf55780601f10610bca57610100808354040283529160200191610bf5565b820191906000526020600020905b815481529060010190602001808311610bd857829003601f168201915b50505050508152602001600782015481526020016008820154815260200160098201548152602001600a8201805480602002602001604051908101604052809291908181526020016000905b82821015610fe8576000848152602090819020604080516101608101909152600b850290910180546001600160a01b031682526001810180549293919291840191610c8b90613749565b80601f0160208091040260200160405190810160405280929190818152602001828054610cb790613749565b8015610d045780601f10610cd957610100808354040283529160200191610d04565b820191906000526020600020905b815481529060010190602001808311610ce757829003601f168201915b505050918352505060028281015460208301526003830154604083015260048301546060830152600583015460809092019160ff1690811115610d4957610d496132b5565b6002811115610d5a57610d5a6132b5565b8152602001600682018054610d6e90613749565b80601f0160208091040260200160405190810160405280929190818152602001828054610d9a90613749565b8015610de75780601f10610dbc57610100808354040283529160200191610de7565b820191906000526020600020905b815481529060010190602001808311610dca57829003601f168201915b50505050508152602001600782018054610e0090613749565b80601f0160208091040260200160405190810160405280929190818152602001828054610e2c90613749565b8015610e795780601f10610e4e57610100808354040283529160200191610e79565b820191906000526020600020905b815481529060010190602001808311610e5c57829003601f168201915b5050509183525050600882015460209091019060ff166003811115610ea057610ea06132b5565b6003811115610eb157610eb16132b5565b8152602001600982018054610ec590613749565b80601f0160208091040260200160405190810160405280929190818152602001828054610ef190613749565b8015610f3e5780601f10610f1357610100808354040283529160200191610f3e565b820191906000526020600020905b815481529060010190602001808311610f2157829003601f168201915b50505050508152602001600a82018054610f5790613749565b80601f0160208091040260200160405190810160405280929190818152602001828054610f8390613749565b8015610fd05780601f10610fa557610100808354040283529160200191610fd0565b820191906000526020600020905b815481529060010190602001808311610fb357829003601f168201915b50505050508152505081526020019060010190610c41565b50505090825250600b82015460ff80821615156020840152610100820481161515604084015262010000820481161515606084015263010000009091041615156080820152600c9091015460a09091015292915050565b6001546040516341e2d85560e11b81523360048201526060916001600160a01b0316906383c5b0aa90602401602060405180830381865afa158015611088573d6000803e3d6000fd5b505050506040513d601f19601f820116820180604052508101906110ac919061385a565b6110f85760405162461bcd60e51b815260206004820152601760248201527f4e6f7420612072656769737465726564206661726d657200000000000000000060448201526064016107d9565b3360009081526008602052604090205460ff161561114e5760405162461bcd60e51b8152602060048201526013602482015272139bd919481a5cc8189b1858dadb1a5cdd1959606a1b60448201526064016107d9565b6000861161119e5760405162461bcd60e51b815260206004820152601760248201527f576569676874206d75737420626520706f73697469766500000000000000000060448201526064016107d9565b600085116111e75760405162461bcd60e51b8152602060048201526016602482015275436f756e74206d75737420626520706f73697469766560501b60448201526064016107d9565b6111ef612425565b90506000600282604051611203919061383e565b90815260405190819003602001902090508061121f83826138cd565b506001810180546001600160a01b03191633179055600281016112428a826138cd565b5060038101805489919060ff19166001836002811115611264576112646132b5565b021790555060048101879055600581018690556006810161128586826138cd565b50426007820155612710600982018190556112a3908990601861246d565b6112af90610e1061398d565b6112b990426139a4565b6008820155600a810180546001818101835560009283526020909220600b9091020180546001600160a01b031916331781559081016112f885826138cd565b5042600282015560038101889055612710600482015560058101805460ff191690556006810161132886826138cd565b506007810161133787826138cd565b5060088101805460ff19169055604080518082019091526002815261412b60f01b6020820152600982019061136c90826138cd565b506040805180820190915260078152665072656d69756d60c81b6020820152600a82019061139a90826138cd565b5050336000908152600360209081526040822080546001810182559083529120016113c583826138cd565b50600580546001810182556000919091527f036b6384b5eca791c62761152d0c79bb0604c104a5fb6f4eb0703f3154bb3db00161140283826138cd565b506001546040516332437e6f60e21b81523360048201526001600160a01b039091169063c90df9bc90602401600060405180830381600087803b15801561144857600080fd5b505af115801561145c573d6000803e3d6000fd5b50506040513392506114709150849061383e565b60405180910390207fe117b3a2e142edbc5f3f6363df217c955063489bde1b9abfe8b427ec70a25e968b8a6040516114a99291906139b7565b60405180910390a350979650505050505050565b815160208184018101805160048252928201918501919091209190528054829081106114e857600080fd5b90600052602060002001600091509150505481565b600080600083604051602001611513919061383e565b60405160208183030381529060405280519060200120905060005b60055481101561164157600060026005838154811061154f5761154f613783565b906000526020600020016040516115669190613799565b908152604051908190036020019020600b81015490915060ff6101009091041615801561159e5750600b81015462010000900460ff16155b80156115d2575082816002016040516020016115ba9190613799565b60405160208183030381529060405280519060200120145b1561163857600a810154806115eb57816004015461161d565b600a82016115fa6001836139d9565b8154811061160a5761160a613783565b90600052602060002090600b0201600301545b61162790876139a4565b95508461163381613825565b955050505b5060010161152e565b5050915091565b606060028260405161165a919061383e565b9081526020016040518091039020600a01805480602002602001604051908101604052809291908181526020016000905b82821015610999576000848152602090819020604080516101608101909152600b850290910180546001600160a01b0316825260018101805492939192918401916116d590613749565b80601f016020809104026020016040519081016040528092919081815260200182805461170190613749565b801561174e5780601f106117235761010080835404028352916020019161174e565b820191906000526020600020905b81548152906001019060200180831161173157829003601f168201915b505050918352505060028281015460208301526003830154604083015260048301546060830152600583015460809092019160ff1690811115611793576117936132b5565b60028111156117a4576117a46132b5565b81526020016006820180546117b890613749565b80601f01602080910402602001604051908101604052809291908181526020018280546117e490613749565b80156118315780601f1061180657610100808354040283529160200191611831565b820191906000526020600020905b81548152906001019060200180831161181457829003601f168201915b5050505050815260200160078201805461184a90613749565b80601f016020809104026020016040519081016040528092919081815260200182805461187690613749565b80156118c35780601f10611898576101008083540402835291602001916118c3565b820191906000526020600020905b8154815290600101906020018083116118a657829003601f168201915b5050509183525050600882015460209091019060ff1660038111156118ea576118ea6132b5565b60038111156118fb576118fb6132b5565b815260200160098201805461190f90613749565b80601f016020809104026020016040519081016040528092919081815260200182805461193b90613749565b80156119885780601f1061195d57610100808354040283529160200191611988565b820191906000526020600020905b81548152906001019060200180831161196b57829003601f168201915b50505050508152602001600a820180546119a190613749565b80601f01602080910402602001604051908101604052809291908181526020018280546119cd90613749565b8015611a1a5780601f106119ef57610100808354040283529160200191611a1a565b820191906000526020600020905b8154815290600101906020018083116119fd57829003601f168201915b5050505050815250508152602001906001019061168b565b600080600289604051611a45919061383e565b90815260405190819003602001902060018101549091506001600160a01b0316611aa35760405162461bcd60e51b815260206004820152600f60248201526e10985d18da081b9bdd08199bdd5b99608a1b60448201526064016107d9565b3360009081526008602052604090205460ff1615611af95760405162461bcd60e51b8152602060048201526013602482015272139bd919481a5cc8189b1858dadb1a5cdd1959606a1b60448201526064016107d9565b600b810154610100900460ff1615611b475760405162461bcd60e51b815260206004820152601160248201527010985d18da081a185cc8195e1c1a5c9959607a1b60448201526064016107d9565b611b55816004015489612530565b9150600080611b668b8486886125ef565b600a850180546001818101835560009283526020909220600b9091020180546001600160a01b031916331781559294509092508101611ba589826138cd565b5042600280830191909155600382018c905560048201869055600582018054889260ff19909116906001908490811115611be157611be16132b5565b021790555060068101611bf48b826138cd565b5060078101611c038a826138cd565b5060088101805488919060ff19166001836003811115611c2557611c256132b5565b021790555060098101611c3884826138cd565b50600a8101611c4783826138cd565b5050600983018490556040513390611c60908d9061383e565b60405180910390207fae779c974148df36a31be5413493a03eb54929c48bf13b4a9f04ed70a0c19abf8685604051611c999291906139ec565b60405180910390a33415611d2c5760018054908401546001600160a01b039182169163d5a528a29116611ccd600a34613a1b565b6040516001600160e01b031960e085901b1681526001600160a01b0390921660048301526024820152604401600060405180830381600087803b158015611d1357600080fd5b505af1158015611d27573d6000803e3d6000fd5b505050505b505050979650505050505050565b611d426123a8565b6001600160a01b038116611d6c57604051631e4fbdf760e01b8152600060048201526024016107d9565b611d75816123d5565b50565b611d80612fb0565b600282604051611d90919061383e565b908152602001604051809103902060405180610200016040529081600082018054611dba90613749565b80601f0160208091040260200160405190810160405280929190818152602001828054611de690613749565b8015611e335780601f10611e0857610100808354040283529160200191611e33565b820191906000526020600020905b815481529060010190602001808311611e1657829003601f168201915b505050918352505060018201546001600160a01b03166020820152600282018054604090920191611e6390613749565b80601f0160208091040260200160405190810160405280929190818152602001828054611e8f90613749565b8015611edc5780601f10611eb157610100808354040283529160200191611edc565b820191906000526020600020905b815481529060010190602001808311611ebf57829003601f168201915b5050509183525050600382015460209091019060ff166002811115611f0357611f036132b5565b6002811115611f1457611f146132b5565b81526020016004820154815260200160058201548152602001600682018054611f3c90613749565b80601f0160208091040260200160405190810160405280929190818152602001828054611f6890613749565b8015611fb55780601f10611f8a57610100808354040283529160200191611fb5565b820191906000526020600020905b815481529060010190602001808311611f9857829003601f168201915b50505050508152602001600782015481526020016008820154815260200160098201548152602001600a8201805480602002602001604051908101604052809291908181526020016000905b82821015610fe8576000848152602090819020604080516101608101909152600b850290910180546001600160a01b03168252600181018054929391929184019161204b90613749565b80601f016020809104026020016040519081016040528092919081815260200182805461207790613749565b80156120c45780601f10612099576101008083540402835291602001916120c4565b820191906000526020600020905b8154815290600101906020018083116120a757829003601f168201915b505050918352505060028281015460208301526003830154604083015260048301546060830152600583015460809092019160ff1690811115612109576121096132b5565b600281111561211a5761211a6132b5565b815260200160068201805461212e90613749565b80601f016020809104026020016040519081016040528092919081815260200182805461215a90613749565b80156121a75780601f1061217c576101008083540402835291602001916121a7565b820191906000526020600020905b81548152906001019060200180831161218a57829003601f168201915b505050505081526020016007820180546121c090613749565b80601f01602080910402602001604051908101604052809291908181526020018280546121ec90613749565b80156122395780601f1061220e57610100808354040283529160200191612239565b820191906000526020600020905b81548152906001019060200180831161221c57829003601f168201915b5050509183525050600882015460209091019060ff166003811115612260576122606132b5565b6003811115612271576122716132b5565b815260200160098201805461228590613749565b80601f01602080910402602001604051908101604052809291908181526020018280546122b190613749565b80156122fe5780601f106122d3576101008083540402835291602001916122fe565b820191906000526020600020905b8154815290600101906020018083116122e157829003601f168201915b50505050508152602001600a8201805461231790613749565b80601f016020809104026020016040519081016040528092919081815260200182805461234390613749565b80156123905780601f1061236557610100808354040283529160200191612390565b820191906000526020600020905b81548152906001019060200180831161237357829003601f168201915b50505050508152505081526020019060010190612001565b6000546001600160a01b031633146109b65760405163118cdaa760e01b81523360048201526024016107d9565b600080546001600160a01b038381166001600160a01b0319831681178455604051919092169283917f8be0079c531659141344cd1fd0a4f28419497f9722a3daafe3b4186f6b6457e09190a35050565b60068054606091600061243783613825565b9190505550612449600654600561282a565b6040516020016124599190613a2f565b604051602081830303815290604052905090565b600080806001866002811115612485576124856132b5565b0361249657506018905060066124c3565b60028660028111156124aa576124aa6132b5565b036124bb575060a8905060186124c3565b5060489050600c5b600060c86124d3876127106139d9565b6124dd9190613a1b565b9050808311156124f8576124f181846139d9565b93506124fc565b8193505b848411156125155761250e85856139d9565b935061251a565b600093505b81841015612526578193505b5050509392505050565b60008083116125815760405162461bcd60e51b815260206004820152601c60248201527f4f726967696e207765696768742063616e6e6f74206265207a65726f0000000060448201526064016107d9565b828211156125d15760405162461bcd60e51b815260206004820152601a60248201527f44657374207765696768742065786365656473206f726967696e00000000000060448201526064016107d9565b826125de8361271061398d565b6125e89190613a1b565b9392505050565b60038301546060908190600090829061260c90879060ff166128f1565b929650909450909250508115905061262e57600b8601805460ff191660011790555b6009860154858111801561264c575061012c61264a87836139d9565b115b156126aa578760405161265f919061383e565b6040519081900390207fcfa8f7b180bf59e1f2f16b055e8702d3fb779711c6042c9d0b2c0cf9e58c2e8161269388846139d9565b604080519182523360208301520160405180910390a25b8086111561273e57600b8701805463ff000000191663010000001790556040516126d590899061383e565b60405180910390207f1da98530708d2b12a2500f3aa82a8d1d758fab5a51daab34ab2c4b4f7d5fae446040516127359060208082526016908201527514149154d15495905512559157d4d554d41150d5115160521b604082015260600190565b60405180910390a25b6001856002811115612752576127526132b5565b036127c35787604051612765919061383e565b60405180910390207f1da98530708d2b12a2500f3aa82a8d1d758fab5a51daab34ab2c4b4f7d5fae446040516127ba906020808252600b908201526a109493d2d15397d4d1505360aa1b604082015260600190565b60405180910390a25b866008015442111561281f57600b8701805461ff0019166101001790556040516127ee90899061383e565b604051908190038120907f4d162764164a3ad7275221da892fcbdec29cfe24c39f4e03b62771a84aae581e90600090a25b505094509492505050565b606060008267ffffffffffffffff81111561284757612847613190565b6040519080825280601f01601f191660200182016040528015612871576020820181803683370190505b509050825b80156128e757612887600a86613a65565b6128929060306139a4565b60f81b826128a16001846139d9565b815181106128b1576128b1613783565b60200101906001600160f81b031916908160001a9053506128d3600a86613a1b565b9450806128df81613a79565b915050612876565b5090505b92915050565b606080806000600185600281111561290b5761290b6132b5565b03612926576129198661295a565b9350935093509350612951565b600285600281111561293a5761293a6132b5565b036129485761291986612baa565b61291986612d6a565b92959194509250565b6060806060600061264885106129cf5750506040805180820182526002815261412b60f01b6020808301919091528251808401845260078152665072656d69756d60c81b818301528351808501909452600a84526946756c6c20707269636560b01b9184019190915290935091506000612ba3565b6125808510612a3a57505060408051808201825260018152604160f81b60208083019190915282518084018452600581526408ce4cae6d60db1b818301528351808501909452600a84526946756c6c20707269636560b01b9184019190915290935091506000612ba3565b6124548510612ab157505060408051808201825260018152602160f91b60208083019190915282518084018452600a81526941636365707461626c6560b01b8183015283518085019094526011845270135bd9195c985d1948191a5cd8dbdd5b9d607a1b9184019190915290935091506000612ba3565b6123288510612b3057505060408051808201825260018152604360f81b6020808301919091528251808401845260078152661499591d58d95960ca1b8183015283518085019094528184527f4465657020646973636f756e74202d2073656c6c20696d6d6564696174656c799184019190915290935091506000612ba3565b6001604051806040016040528060018152602001601160fa1b815250906040518060400160405280600881526020016714995a9958dd195960c21b8152509060405180604001604052806011815260200170111a5cdc1d5d19481d1c9a59d9d95c9959607a1b8152509093509350935093505b9193509193565b6060806060600061251c8510612c1f5750506040805180820182526002815261412b60f01b6020808301919091528251808401845260078152665072656d69756d60c81b818301528351808501909452600a84526946756c6c20707269636560b01b9184019190915290935091506000612ba3565b6123f08510612c8a57505060408051808201825260018152604160f81b60208083019190915282518084018452600581526408ce4cae6d60db1b818301528351808501909452600a84526946756c6c20707269636560b01b9184019190915290935091506000612ba3565b6122608510612cfe57505060408051808201825260018152602160f91b60208083019190915282518084018452600a81526941636365707461626c6560b01b818301528351808501909452600e84526d135a5b9bdc88191a5cd8dbdd5b9d60921b9184019190915290935091506000612ba3565b6121348510612b3057505060408051808201825260018152604360f81b6020808301919091528251808401845260078152661499591d58d95960ca1b818301528351808501909452600984526829b2b6361039b7b7b760b91b9184019190915290935091506000612ba3565b606080606060006126488510612deb5750506040805180820182526002815261412b60f01b6020808301919091528251808401845260078152665072656d69756d60c81b8183015283518085019094526016845275233ab63610383934b1b29016903a37b81039b432b63360511b9184019190915290935091506000612ba3565b61251c8510612e6957505060408051808201825260018152604160f81b60208083019190915282518084018452600581526408ce4cae6d60db1b818301528351808501909452601784527f46756c6c207072696365202d206d61726b657461626c650000000000000000009184019190915290935091506000612ba3565b6123288510612eda576000604051806040016040528060018152602001602160f91b815250906040518060400160405280600a81526020016941636365707461626c6560b01b81525090604051806060016040528060248152602001613ad560249139909350935093509350612ba3565b6121348510612f48576000604051806040016040528060018152602001604360f81b81525090604051806040016040528060078152602001661499591d58d95960ca1b81525090604051806060016040528060218152602001613ab460219139909350935093509350612ba3565b6001604051806040016040528060018152602001601160fa1b815250906040518060400160405280600881526020016714995a9958dd195960c21b81525090604051806060016040528060238152602001613a91602391399093509350935093509193509193565b6040518061020001604052806060815260200160006001600160a01b031681526020016060815260200160006002811115612fed57612fed6132b5565b815260200160008152602001600081526020016060815260200160008152602001600081526020016000815260200160608152602001600015158152602001600015158152602001600015158152602001600015158152602001600081525090565b80356001600160a01b038116811461306657600080fd5b919050565b60006020828403121561307d57600080fd5b6125e88261304f565b60006020828403121561309857600080fd5b5035919050565b60005b838110156130ba5781810151838201526020016130a2565b50506000910152565b600081518084526130db81602086016020860161309f565b601f01601f19169290920160200192915050565b6020815260006125e860208301846130c3565b600060208083016020845280855180835260408601915060408160051b87010192506020870160005b8281101561315957603f198886030184526131478583516130c3565b9450928501929085019060010161312b565b5092979650505050505050565b6000806040838503121561317957600080fd5b6131828361304f565b946020939093013593505050565b634e487b7160e01b600052604160045260246000fd5b600082601f8301126131b757600080fd5b813567ffffffffffffffff808211156131d2576131d2613190565b604051601f8301601f19908116603f011681019082821181831017156131fa576131fa613190565b8160405283815286602085880101111561321357600080fd5b836020870160208301376000602085830101528094505050505092915050565b6000806040838503121561324657600080fd5b823567ffffffffffffffff81111561325d57600080fd5b613269858286016131a6565b95602094909401359450505050565b60006020828403121561328a57600080fd5b813567ffffffffffffffff8111156132a157600080fd5b6132ad848285016131a6565b949350505050565b634e487b7160e01b600052602160045260246000fd5b600381106132db576132db6132b5565b9052565b600481106132db576132db6132b5565b600082825180855260208086019550808260051b84010181860160005b8481101561341157858303601f19018952815180516001600160a01b03168452610160858201518187870152613344828701826130c3565b60408481015190880152606080850151908801526080808501519088015260a0808501519193509150613379828801826132cb565b505060c0808301518683038288015261339283826130c3565b9250505060e080830151868303828801526133ad83826130c3565b92505050610100808301516133c4828801826132df565b505061012080830151868303828801526133de83826130c3565b9250505061014080830151925085820381870152506133fd81836130c3565b9a86019a945050509083019060010161330c565b5090979650505050505050565b602081526000825161020080602085015261343d6102208501836130c3565b9150602085015161345960408601826001600160a01b03169052565b506040850151601f198086850301606087015261347684836130c3565b93506060870151915061348c60808701836132cb565b608087015160a087015260a087015160c087015260c08701519150808685030160e08701526134bb84836130c3565b60e08801516101008881019190915288015161012080890191909152880151610140808901919091528801518782038301610160808a0191909152919550925061350585846132ef565b9450808801519250505061018061351f8187018315159052565b86015190506101a06135348682018315159052565b86015190506101c06135498682018315159052565b86015190506101e061355e8682018315159052565b959095015193019290925250919050565b80356003811061306657600080fd5b600080600080600080600060e0888a03121561359957600080fd5b873567ffffffffffffffff808211156135b157600080fd5b6135bd8b838c016131a6565b98506135cb60208b0161356f565b975060408a0135965060608a0135955060808a01359150808211156135ef57600080fd5b6135fb8b838c016131a6565b945060a08a013591508082111561361157600080fd5b61361d8b838c016131a6565b935060c08a013591508082111561363357600080fd5b506136408a828b016131a6565b91505092959891949750929550565b6020815260006125e860208301846132ef565b80356004811061306657600080fd5b600080600080600080600060e0888a03121561368c57600080fd5b873567ffffffffffffffff808211156136a457600080fd5b6136b08b838c016131a6565b985060208a0135975060408a01359150808211156136cd57600080fd5b6136d98b838c016131a6565b965060608a01359150808211156136ef57600080fd5b6136fb8b838c016131a6565b955060808a013591508082111561371157600080fd5b5061371e8a828b016131a6565b93505061372d60a08901613662565b915061373b60c0890161356f565b905092959891949750929550565b600181811c9082168061375d57607f821691505b60208210810361377d57634e487b7160e01b600052602260045260246000fd5b50919050565b634e487b7160e01b600052603260045260246000fd5b60008083546137a781613749565b600182811680156137bf57600181146137d457613803565b60ff1984168752821515830287019450613803565b8760005260208060002060005b858110156137fa5781548a8201529084019082016137e1565b50505082870194505b50929695505050505050565b634e487b7160e01b600052601160045260246000fd5b6000600182016138375761383761380f565b5060010190565b6000825161385081846020870161309f565b9190910192915050565b60006020828403121561386c57600080fd5b815180151581146125e857600080fd5b601f8211156138c8576000816000526020600020601f850160051c810160208610156138a55750805b601f850160051c820191505b818110156138c4578281556001016138b1565b5050505b505050565b815167ffffffffffffffff8111156138e7576138e7613190565b6138fb816138f58454613749565b8461387c565b602080601f83116001811461393057600084156139185750858301515b600019600386901b1c1916600185901b1785556138c4565b600085815260208120601f198616915b8281101561395f57888601518255948401946001909101908401613940565b508582101561397d5787850151600019600388901b60f8161c191681555b5050505050600190811b01905550565b80820281158282048414176128eb576128eb61380f565b808201808211156128eb576128eb61380f565b6040815260006139ca60408301856130c3565b90508260208301529392505050565b818103818111156128eb576128eb61380f565b8281526040602082015260006132ad60408301846130c3565b634e487b7160e01b600052601260045260246000fd5b600082613a2a57613a2a613a05565b500490565b6d42415443482d4b412d323032342d60901b815260008251613a5881600e85016020870161309f565b91909101600e0192915050565b600082613a7457613a74613a05565b500690565b600081613a8857613a8861380f565b50600019019056fe4469737075746520747269676765726564202d206e6f2066756c6c207061796d656e745369676e69666963616e7420646973636f756e74202d2073656c6c20746f646179536c6967687420646973636f756e74202d2073656c6c2077697468696e20322064617973a2646970667358221220faa5e4acd4104b2393ba0a26ffe0c20488e9b24dafd91bf34a9130e5f324fe5564736f6c63430008180033",
  "linkReferences": {},
  "deployedLinkReferences": {}
}