{
  "_format": "hh-sol-artifact-1",
  "contractName": "DisputeEngine",
  "sourceName": "contracts/DisputeEngine.sol",
  "abi": [
    {
      "inputs": [
        {
          "internalType": "address",
          "name": "admin",
          "type": "address"
        },
        {
          "internalType": "address",
          "name": "_batchRegistry",
          "type": "address"
        },
        {
          "internalType": "address",
          "name": "_farmerRegistry",
          "type": "address"
        }
      ],
      "stateMutability": "nonpayable",
      "type": "constructor"
    },
    {
      "inputs": [],
      "name": "AccessControlBadConfirmation",
      "type": "error"
    },
    {
      "inputs": [
        {
          "internalType": "address",
          "name": "account",
          "type": "address"
        },
        {
          "internalType": "bytes32",
          "name": "neededRole",
          "type": "bytes32"
        }
      ],
      "name": "AccessControlUnauthorizedAccount",
      "type": "error"
    },
    {
      "anonymous": false,
      "inputs": [
        {
          "indexed": true,
          "internalType": "uint256",
          "name": "id",
          "type": "uint256"
        },
        {
          "indexed": false,
          "internalType": "address",
          "name": "recipient",
          "type": "address"
        },
        {
          "indexed": false,
          "internalType": "uint256",
          "name": "amount",
          "type": "uint256"
        }
      ],
      "name": "CompensationDisbursed",
      "type": "event"
    },
    {
      "anonymous": false,
      "inputs": [
        {
          "indexed": true,
          "internalType": "uint256",
          "name": "id",
          "type": "uint256"
        },
        {
          "indexed": false,
          "internalType": "string",
          "name": "batchId",
          "type": "string"
        },
        {
          "indexed": false,
          "internalType": "address",
          "name": "respondent",
          "type": "address"
        },
        {
          "indexed": false,
          "internalType": "enum DisputeEngine.DisputeType",
          "name": "dtype",
          "type": "uint8"
        }
      ],
      "name": "DisputeCreated",
      "type": "event"
    },
    {
      "anonymous": false,
      "inputs": [
        {
          "indexed": true,
          "internalType": "uint256",
          "name": "id",
          "type": "uint256"
        },
        {
          "indexed": false,
          "internalType": "bool",
          "name": "guilty",
          "type": "bool"
        },
        {
          "indexed": false,
          "internalType": "address",
          "name": "respondent",
          "type": "address"
        }
      ],
      "name": "DisputeResolved",
      "type": "event"
    },
    {
      "anonymous": false,
      "inputs": [
        {
          "indexed": true,
          "internalType": "uint256",
          "name": "id",
          "type": "uint256"
        },
        {
          "indexed": false,
          "internalType": "address",
          "name": "submitter",
          "type": "address"
        },
        {
          "indexed": false,
          "internalType": "string",
          "name": "ipfsHash",
          "type": "string"
        }
      ],
      "name": "EvidenceSubmitted",
      "type": "event"
    },
    {
      "anonymous": false,
      "inputs": [
        {
          "indexed": true,
          "internalType": "bytes32",
          "name": "role",
          "type": "bytes32"
        },
        {
          "indexed": true,
          "internalType": "bytes32",
          "name": "previousAdminRole",
          "type": "bytes32"
        },
        {
          "indexed": true,
          "internalType": "bytes32",
          "name": "newAdminRole",
          "type": "bytes32"
        }
      ],
      "name": "RoleAdminChanged",
      "type": "event"
    },
    {
      "anonymous": false,
      "inputs": [
        {
          "indexed": true,
          "internalType": "bytes32",
          "name": "role",
          "type": "bytes32"
        },
        {
          "indexed": true,
          "internalType": "address",
          "name": "account",
          "type": "address"
        },
        {
          "indexed": true,
          "internalType": "address",
          "name": "sender",
          "type": "address"
        }
      ],
      "name": "RoleGranted",
      "type": "event"
    },
    {
      "anonymous": false,
      "inputs": [
        {
          "indexed": true,
          "internalType": "bytes32",
          "name": "role",
          "type": "bytes32"
        },
        {
          "indexed": true,
          "internalType": "address",
          "name": "account",
          "type": "address"
        },
        {
          "indexed": true,
          "internalType": "address",
          "name": "sender",
          "type": "address"
        }
      ],
      "name": "RoleRevoked",
      "type": "event"
    },
    {
      "anonymous": false,
      "inputs": [
        {
          "indexed": true,
          "internalType": "uint256",
          "name": "id",
          "type": "uint256"
        },
        {
          "indexed": false,
          "internalType": "address",
          "name": "voter",
          "type": "address"
        },
        {
          "indexed": false,
          "internalType": "uint8",
          "name": "vote",
          "type": "uint8"
        }
      ],
      "name": "VoteCast",
      "type": "event"
    },
    {
      "inputs": [],
      "name": "DEFAULT_ADMIN_ROLE",
      "outputs": [
        {
          "internalType": "bytes32",
          "name": "",
          "type": "bytes32"
        }
      ],
      "stateMutability": "view",
      "type": "function"
    },
    {
      "inputs": [],
      "name": "INITIATOR_ROLE",
      "outputs": [
        {
          "internalType": "bytes32",
          "name": "",
          "type": "bytes32"
        }
      ],
      "stateMutability": "view",
      "type": "function"
    },
    {
      "inputs": [],
      "name": "PANEL_ROLE",
      "outputs": [
        {
          "internalType": "bytes32",
          "name": "",
          "type": "bytes32"
        }
      ],
      "stateMutability": "view",
      "type": "function"
    },
    {
      "inputs": [],
      "name": "batchRegistry",
      "outputs": [
        {
          "internalType": "contract BatchRegistry",
          "name": "",
          "type": "address"
        }
      ],
      "stateMutability": "view",
      "type": "function"
    },
    {
      "inputs": [
        {
          "internalType": "string",
          "name": "",
          "type": "string"
        }
      ],
      "name": "batchToDisputeId",
      "outputs": [
        {
          "internalType": "uint256",
          "name": "",
          "type": "uint256"
        }
      ],
      "stateMutability": "view",
      "type": "function"
    },
    {
      "inputs": [
        {
          "internalType": "uint256",
          "name": "disputeId",
          "type": "uint256"
        },
        {
          "internalType": "uint8",
          "name": "vote",
          "type": "uint8"
        }
      ],
      "name": "castVote",
      "outputs": [],
      "stateMutability": "nonpayable",
      "type": "function"
    },
    {
      "inputs": [
        {
          "internalType": "string",
          "name": "batchId",
          "type": "string"
        },
        {
          "internalType": "address",
          "name": "respondent",
          "type": "address"
        },
        {
          "internalType": "enum DisputeEngine.DisputeType",
          "name": "dtype",
          "type": "uint8"
        },
        {
          "internalType": "string",
          "name": "systemEvidence",
          "type": "string"
        },
        {
          "internalType": "string",
          "name": "systemRecommendation",
          "type": "string"
        }
      ],
      "name": "createDispute",
      "outputs": [
        {
          "internalType": "uint256",
          "name": "disputeId",
          "type": "uint256"
        }
      ],
      "stateMutability": "nonpayable",
      "type": "function"
    },
    {
      "inputs": [],
      "name": "depositToFund",
      "outputs": [],
      "stateMutability": "payable",
      "type": "function"
    },
    {
      "inputs": [],
      "name": "disputeCounter",
      "outputs": [
        {
          "internalType": "uint256",
          "name": "",
          "type": "uint256"
        }
      ],
      "stateMutability": "view",
      "type": "function"
    },
    {
      "inputs": [],
      "name": "disputeFundWei",
      "outputs": [
        {
          "internalType": "uint256",
          "name": "",
          "type": "uint256"
        }
      ],
      "stateMutability": "view",
      "type": "function"
    },
    {
      "inputs": [],
      "name": "farmerRegistry",
      "outputs": [
        {
          "internalType": "contract FarmerRegistry",
          "name": "",
          "type": "address"
        }
      ],
      "stateMutability": "view",
      "type": "function"
    },
    {
      "inputs": [
        {
          "internalType": "uint256",
          "name": "id",
          "type": "uint256"
        }
      ],
      "name": "getDisputeCore",
      "outputs": [
        {
          "internalType": "uint256",
          "name": "_id",
          "type": "uint256"
        },
        {
          "internalType": "string",
          "name": "batchId",
          "type": "string"
        },
        {
          "internalType": "address",
          "name": "initiator",
          "type": "address"
        },
        {
          "internalType": "address",
          "name": "respondent",
          "type": "address"
        },
        {
          "internalType": "enum DisputeEngine.DisputeType",
          "name": "disputeType",
          "type": "uint8"
        },
        {
          "internalType": "string",
          "name": "systemEvidence",
          "type": "string"
        },
        {
          "internalType": "string",
          "name": "submittedEvidence",
          "type": "string"
        },
        {
          "internalType": "string",
          "name": "systemRecommendation",
          "type": "string"
        }
      ],
      "stateMutability": "view",
      "type": "function"
    },
    {
      "inputs": [
        {
          "internalType": "uint256",
          "name": "id",
          "type": "uint256"
        }
      ],
      "name": "getDisputeStatus",
      "outputs": [
        {
          "internalType": "uint256",
          "name": "createdAt",
          "type": "uint256"
        },
        {
          "internalType": "uint256",
          "name": "evidenceDeadline",
          "type": "uint256"
        },
        {
          "internalType": "enum DisputeEngine.DisputeStatus",
          "name": "status",
          "type": "uint8"
        },
        {
          "internalType": "uint256",
          "name": "guiltyVotes",
          "type": "uint256"
        },
        {
          "internalType": "uint256",
          "name": "innocentVotes",
          "type": "uint256"
        },
        {
          "internalType": "bool",
          "name": "resolved",
          "type": "bool"
        },
        {
          "internalType": "uint256",
          "name": "compensationWei",
          "type": "uint256"
        }
      ],
      "stateMutability": "view",
      "type": "function"
    },
    {
      "inputs": [
        {
          "internalType": "uint256",
          "name": "id",
          "type": "uint256"
        }
      ],
      "name": "getDisputeVotes",
      "outputs": [
        {
          "components": [
            {
              "internalType": "address",
              "name": "voter",
              "type": "address"
            },
            {
              "internalType": "uint8",
              "name": "vote",
              "type": "uint8"
            },
            {
              "internalType": "uint256",
              "name": "timestamp",
              "type": "uint256"
            }
          ],
          "internalType": "struct DisputeEngine.DisputeVote[]",
          "name": "",
          "type": "tuple[]"
        }
      ],
      "stateMutability": "view",
      "type": "function"
    },
    {
      "inputs": [],
      "name": "getOpenDisputes",
      "outputs": [
        {
          "internalType": "uint256[]",
          "name": "",
          "type": "uint256[]"
        }
      ],
      "stateMutability": "view",
      "type": "function"
    },
    {
      "inputs": [
        {
          "internalType": "bytes32",
          "name": "role",
          "type": "bytes32"
        }
      ],
      "name": "getRoleAdmin",
      "outputs": [
        {
          "internalType": "bytes32",
          "name": "",
          "type": "bytes32"
        }
      ],
      "stateMutability": "view",
      "type": "function"
    },
    {
      "inputs": [
        {
          "internalType": "bytes32",
          "name": "role",
          "type": "bytes32"
        },
        {
          "internalType": "address",
          "name": "account",
          "type": "address"
        }
      ],
      "name": "grantRole",
      "outputs": [],
      "stateMutability": "nonpayable",
      "type": "function"
    },
    {
      "inputs": [
        {
          "internalType": "bytes32",
          "name": "role",
          "type": "bytes32"
        },
        {
          "internalType": "address",
          "name": "account",
          "type": "address"
        }
      ],
      "name": "hasRole",
      "outputs": [
        {
          "internalType": "bool",
          "name": "",
          "type": "bool"
        }
      ],
      "stateMutability": "view",
      "type": "function"
    },
    {
      "inputs": [
        {
          "internalType": "bytes32",
          "name": "role",
          "type": "bytes32"
        },
        {
          "internalType": "address",
          "name": "callerConfirmation",
          "type": "address"
        }
      ],
      "name": "renounceRole",
      "outputs": [],
      "stateMutability": "nonpayable",
      "type": "function"
    },
    {
      "inputs": [
        {
          "internalType": "uint256",
          "name": "disputeId",
          "type": "uint256"
        }
      ],
      "name": "resolveDispute",
      "outputs": [],
      "stateMutability": "nonpayable",
      "type": "function"
    },
    {
      "inputs": [
        {
          "internalType": "bytes32",
          "name": "role",
          "type": "bytes32"
        },
        {
          "internalType": "address",
          "name": "account",
          "type": "address"
        }
      ],
      "name": "revokeRole",
      "outputs": [],
      "stateMutability": "nonpayable",
      "type": "function"
    },
    {
      "inputs": [
        {
          "internalType": "uint256",
          "name": "disputeId",
          "type": "uint256"
        },
        {
          "internalType": "string",
          "name": "ipfsHash",
          "type": "string"
        }
      ],
      "name": "submitEvidence",
      "outputs": [],
      "stateMutability": "nonpayable",
      "type": "function"
    },
    {
      "inputs": [
        {
          "internalType": "bytes4",
          "name": "interfaceId",
          "type": "bytes4"
        }
      ],
      "name": "supportsInterface",
      "outputs": [
        {
          "internalType": "bool",
          "name": "",
          "type": "bool"
        }
      ],
      "stateMutability": "view",
      "type": "function"
    },
    {
      "stateMutability": "payable",
      "type": "receive"
    }
  ],
  "bytecode": "0x60806040523480156200001157600080fd5b5060405162001d2638038062001d2683398101604081905262000034916200019b565b62000041600084620000cf565b506200006e7f4b81e300143c1ace25c0337e2eb33f6d2085fea7acff687d704b50fb0729cef284620000cf565b506200009b7f6b8b15f1c11543d8280deaa7c24d12fffba6a357e4428e8c43e4234790186bff84620000cf565b50600580546001600160a01b039384166001600160a01b0319918216179091556006805492909316911617905550620001e5565b6000828152602081815260408083206001600160a01b038516845290915281205460ff1662000174576000838152602081815260408083206001600160a01b03861684529091529020805460ff191660011790556200012b3390565b6001600160a01b0316826001600160a01b0316847f2f8788117e7eff1d82e926ec794901d17c78024a50270940304540a733656f0d60405160405180910390a450600162000178565b5060005b92915050565b80516001600160a01b03811681146200019657600080fd5b919050565b600080600060608486031215620001b157600080fd5b620001bc846200017e565b9250620001cc602085016200017e565b9150620001dc604085016200017e565b90509250925092565b611b3180620001f56000396000f3fe6080604052600436106101445760003560e01c806376e276a4116100b6578063a6a7f0eb1161006f578063a6a7f0eb1461042f578063a7ff0b771461044f578063aa40b77b14610487578063c2b7b868146104a7578063c4736092146104c7578063d547741f146104f457600080fd5b806376e276a4146103785780637d36f4d3146103ac5780638e3d7424146103c257806391d14854146103d85780639d28c026146103f8578063a217fddf1461041a57600080fd5b806320f7aa3f1161010857806320f7aa3f14610241578063248a9ca3146102b45780632f2ff15d146102e457806336568abe1461030457806337f1bda814610324578063567813881461035857600080fd5b806301ffc9a71461016857806304fcae881461019d5780630da80980146101cb5780631554efcb146102035780631990e9791461020d57600080fd5b3661016357346004600082825461015b9190611433565b925050819055005b600080fd5b34801561017457600080fd5b50610188610183366004611446565b610514565b60405190151581526020015b60405180910390f35b3480156101a957600080fd5b506101bd6101b8366004611536565b61054b565b604051908152602001610194565b3480156101d757600080fd5b506006546101eb906001600160a01b031681565b6040516001600160a01b039091168152602001610194565b61020b610793565b005b34801561021957600080fd5b506101bd7f6b8b15f1c11543d8280deaa7c24d12fffba6a357e4428e8c43e4234790186bff81565b34801561024d57600080fd5b506102a161025c3660046115e8565b6000908152600160205260409020600681015460078201546008830154600a840154600b850154600c860154600d909601549496939560ff9384169592949193169190565b6040516101949796959493929190611617565b3480156102c057600080fd5b506101bd6102cf3660046115e8565b60009081526020819052604090206001015490565b3480156102f057600080fd5b5061020b6102ff366004611660565b6107ac565b34801561031057600080fd5b5061020b61031f366004611660565b6107d7565b34801561033057600080fd5b5061034461033f3660046115e8565b61080f565b6040516101949897969594939291906116f0565b34801561036457600080fd5b5061020b610373366004611779565b610ab7565b34801561038457600080fd5b506101bd7f4b81e300143c1ace25c0337e2eb33f6d2085fea7acff687d704b50fb0729cef281565b3480156103b857600080fd5b506101bd60035481565b3480156103ce57600080fd5b506101bd60045481565b3480156103e457600080fd5b506101886103f3366004611660565b610cb0565b34801561040457600080fd5b5061040d610cd9565b60405161019491906117af565b34801561042657600080fd5b506101bd600081565b34801561043b57600080fd5b5061020b61044a3660046117f3565b610dd7565b34801561045b57600080fd5b506101bd61046a36600461183a565b805160208183018101805160028252928201919093012091525481565b34801561049357600080fd5b506005546101eb906001600160a01b031681565b3480156104b357600080fd5b5061020b6104c23660046115e8565b610ef8565b3480156104d357600080fd5b506104e76104e23660046115e8565b611214565b6040516101949190611877565b34801561050057600080fd5b5061020b61050f366004611660565b6112b1565b60006001600160e01b03198216637965db0b60e01b148061054557506301ffc9a760e01b6001600160e01b03198316145b92915050565b60006105777f6b8b15f1c11543d8280deaa7c24d12fffba6a357e4428e8c43e4234790186bff33610cb0565b8061058c57506005546001600160a01b031633145b6105e75760405162461bcd60e51b815260206004820152602160248201527f4e6f7420617574686f726973656420746f2063726561746520646973707574656044820152607360f81b60648201526084015b60405180910390fd5b600380549060006105f7836118dc565b909155505060035460008181526001602081905260409091208281559192508101610622888261197f565b50600281018054336001600160a01b031991821617909155600380830180549283166001600160a01b038a169081178255889391926001600160a81b03199092161790600160a01b90849081111561067c5761067c611601565b02179055506004810161068f858261197f565b50600e810161069e848261197f565b5042600682018190556106b4906202a300611433565b600782015560088101805460ff1916600117905560405182906002906106db908a90611a3f565b9081526040519081900360200181209190915560055463351723bf60e11b82526001600160a01b031690636a2e477e9061071b908a908690600401611a5b565b600060405180830381600087803b15801561073557600080fd5b505af1158015610749573d6000803e3d6000fd5b50505050817f50ed4897617d0c2d741840342c9aa52fc7d5302471f2f68a698bd0e7ebd61e1a88888860405161078193929190611a7d565b60405180910390a25095945050505050565b34600460008282546107a59190611433565b9091555050565b6000828152602081905260409020600101546107c7816112d6565b6107d183836112e3565b50505050565b6001600160a01b03811633146108005760405163334bd91960e11b815260040160405180910390fd5b61080a8282611375565b505050565b60008181526001602081905260408220805460028201546003830154938301805460609587958695869589958695869591926001600160a01b039081169290811691600160a01b90910460ff169060048701906005880190600e8901908790610877906118f5565b80601f01602080910402602001604051908101604052809291908181526020018280546108a3906118f5565b80156108f05780601f106108c5576101008083540402835291602001916108f0565b820191906000526020600020905b8154815290600101906020018083116108d357829003601f168201915b50505050509650828054610903906118f5565b80601f016020809104026020016040519081016040528092919081815260200182805461092f906118f5565b801561097c5780601f106109515761010080835404028352916020019161097c565b820191906000526020600020905b81548152906001019060200180831161095f57829003601f168201915b5050505050925081805461098f906118f5565b80601f01602080910402602001604051908101604052809291908181526020018280546109bb906118f5565b8015610a085780601f106109dd57610100808354040283529160200191610a08565b820191906000526020600020905b8154815290600101906020018083116109eb57829003601f168201915b50505050509150808054610a1b906118f5565b80601f0160208091040260200160405190810160405280929190818152602001828054610a47906118f5565b8015610a945780601f10610a6957610100808354040283529160200191610a94565b820191906000526020600020905b815481529060010190602001808311610a7757829003601f168201915b505050505090509850985098509850985098509850985050919395975091939597565b7f4b81e300143c1ace25c0337e2eb33f6d2085fea7acff687d704b50fb0729cef2610ae1816112d6565b60008381526001602052604090206002600882015460ff166004811115610b0a57610b0a611601565b14610b4d5760405162461bcd60e51b81526020600482015260136024820152724e6f7420696e20766f74696e6720706861736560681b60448201526064016105de565b8260ff1660011480610b6257508260ff166002145b610bbe5760405162461bcd60e51b815260206004820152602760248201527f566f7465206d757374206265203120286775696c747929206f7220322028696e6044820152666e6f63656e742960c81b60648201526084016105de565b6040805160608101825233815260ff808616602080840182815242958501958652600987018054600181810183556000928352939091209551600290910290950180549151909416600160a01b026001600160a81b03199091166001600160a01b03959095169490941793909317825592519082015503610c5557600a81018054906000610c4b836118dc565b9190505550610c6d565b600b81018054906000610c67836118dc565b91905055505b6040805133815260ff8516602082015285917feba4866100b822f0f391e610e7edfab790b9e8766c0012733c26b2f1858e8dd7910160405180910390a250505050565b6000918252602082815260408084206001600160a01b0393909316845291905290205460ff1690565b6060600060015b6003548111610d22576000818152600160205260409020600c015460ff16610d105781610d0c816118dc565b9250505b80610d1a816118dc565b915050610ce0565b5060008167ffffffffffffffff811115610d3e57610d3e611477565b604051908082528060200260200182016040528015610d67578160200160208202803683370190505b509050600060015b6003548111610dce576000818152600160205260409020600c015460ff16610dbc57808383610d9d816118dc565b945081518110610daf57610daf611aae565b6020026020010181815250505b80610dc6816118dc565b915050610d6f565b50909392505050565b60008281526001602052604090206007810154421115610e395760405162461bcd60e51b815260206004820152601860248201527f45766964656e636520646561646c696e6520706173736564000000000000000060448201526064016105de565b6001600882015460ff166004811115610e5457610e54611601565b14610e995760405162461bcd60e51b81526020600482015260156024820152744e6f7420696e2065766964656e636520706861736560581b60448201526064016105de565b60058101610ea7838261197f565b5060088101805460ff1916600217905560405183907fa49e7517d2b5714f7812f718444c5a2931d4fc670ed2d2aa2426ff2f42c5b44d90610eeb9033908690611ac4565b60405180910390a2505050565b6000818152600160205260409020600c81015460ff1615610f4e5760405162461bcd60e51b815260206004820152601060248201526f105b1c9958591e481c995cdbdb1d995960821b60448201526064016105de565b8060070154421180610f6557506009810154600311155b610fa65760405162461bcd60e51b815260206004820152601260248201527110d85b9b9bdd081c995cdbdb1d99481e595d60721b60448201526064016105de565b600b810154600a820154600c8301805460ff191660011790551180156111be5760088201805460ff191660039081179091556006549083015460405163f0bdff3b60e01b81526001600160a01b039182166004820152600e19602482015291169063f0bdff3b90604401600060405180830381600087803b15801561102a57600080fd5b505af115801561103e573d6000803e3d6000fd5b50505050600382015460408051600181526001600160a01b03909216602083015284917fe4869990df273a675df63cd0acf961e8cac9e8c47748a9d71c02c21e510e850c910160405180910390a267016345785d8a00006004541061080a57600067016345785d8a0000905080600460008282546110bc9190611ae8565b9091555050600d830181905560028301546040516000916001600160a01b03169083908381818185875af1925050503d8060008114611117576040519150601f19603f3d011682016040523d82523d6000602084013e61111c565b606091505b505090508061116d5760405162461bcd60e51b815260206004820152601c60248201527f436f6d70656e736174696f6e207472616e73666572206661696c65640000000060448201526064016105de565b6002840154604080516001600160a01b0390921682526020820184905286917f979f7fff7df78f19dda759cf614b7cdd22a22e2226c7fde5baa5652f97b50b80910160405180910390a25050505050565b60088201805460ff19166004179055600382015460408051600081526001600160a01b03909216602083015284917fe4869990df273a675df63cd0acf961e8cac9e8c47748a9d71c02c21e510e850c9101610eeb565b606060016000838152602001908152602001600020600901805480602002602001604051908101604052809291908181526020016000905b828210156112a6576000848152602090819020604080516060810182526002860290920180546001600160a01b0381168452600160a01b900460ff168385015260019081015491830191909152908352909201910161124c565b505050509050919050565b6000828152602081905260409020600101546112cc816112d6565b6107d18383611375565b6112e081336113e0565b50565b60006112ef8383610cb0565b61136d576000838152602081815260408083206001600160a01b03861684529091529020805460ff191660011790556113253390565b6001600160a01b0316826001600160a01b0316847f2f8788117e7eff1d82e926ec794901d17c78024a50270940304540a733656f0d60405160405180910390a4506001610545565b506000610545565b60006113818383610cb0565b1561136d576000838152602081815260408083206001600160a01b0386168085529252808320805460ff1916905551339286917ff6391f5c32d9c69d2a47ea670b442974b53935d1edc7fd64eb21e047a839171b9190a4506001610545565b6113ea8282610cb0565b6114195760405163e2517d3f60e01b81526001600160a01b0382166004820152602481018390526044016105de565b5050565b634e487b7160e01b600052601160045260246000fd5b808201808211156105455761054561141d565b60006020828403121561145857600080fd5b81356001600160e01b03198116811461147057600080fd5b9392505050565b634e487b7160e01b600052604160045260246000fd5b600082601f83011261149e57600080fd5b813567ffffffffffffffff808211156114b9576114b9611477565b604051601f8301601f19908116603f011681019082821181831017156114e1576114e1611477565b816040528381528660208588010111156114fa57600080fd5b836020870160208301376000602085830101528094505050505092915050565b80356001600160a01b038116811461153157600080fd5b919050565b600080600080600060a0868803121561154e57600080fd5b853567ffffffffffffffff8082111561156657600080fd5b61157289838a0161148d565b96506115806020890161151a565b9550604088013591506004821061159657600080fd5b909350606087013590808211156115ac57600080fd5b6115b889838a0161148d565b935060808801359150808211156115ce57600080fd5b506115db8882890161148d565b9150509295509295909350565b6000602082840312156115fa57600080fd5b5035919050565b634e487b7160e01b600052602160045260246000fd5b8781526020810187905260e081016005871061163557611635611601565b604082019690965260608101949094526080840192909252151560a083015260c09091015292915050565b6000806040838503121561167357600080fd5b823591506116836020840161151a565b90509250929050565b60005b838110156116a757818101518382015260200161168f565b50506000910152565b600081518084526116c881602086016020860161168c565b601f01601f19169290920160200192915050565b600481106116ec576116ec611601565b9052565b60006101008a835280602084015261170a8184018b6116b0565b6001600160a01b038a8116604086015289166060850152905061173060808401886116dc565b82810360a084015261174281876116b0565b905082810360c084015261175681866116b0565b905082810360e084015261176a81856116b0565b9b9a5050505050505050505050565b6000806040838503121561178c57600080fd5b82359150602083013560ff811681146117a457600080fd5b809150509250929050565b6020808252825182820181905260009190848201906040850190845b818110156117e7578351835292840192918401916001016117cb565b50909695505050505050565b6000806040838503121561180657600080fd5b82359150602083013567ffffffffffffffff81111561182457600080fd5b6118308582860161148d565b9150509250929050565b60006020828403121561184c57600080fd5b813567ffffffffffffffff81111561186357600080fd5b61186f8482850161148d565b949350505050565b602080825282518282018190526000919060409081850190868401855b828110156118cf57815180516001600160a01b031685528681015160ff16878601528501518585015260609093019290850190600101611894565b5091979650505050505050565b6000600182016118ee576118ee61141d565b5060010190565b600181811c9082168061190957607f821691505b60208210810361192957634e487b7160e01b600052602260045260246000fd5b50919050565b601f82111561080a576000816000526020600020601f850160051c810160208610156119585750805b601f850160051c820191505b8181101561197757828155600101611964565b505050505050565b815167ffffffffffffffff81111561199957611999611477565b6119ad816119a784546118f5565b8461192f565b602080601f8311600181146119e257600084156119ca5750858301515b600019600386901b1c1916600185901b178555611977565b600085815260208120601f198616915b82811015611a11578886015182559484019460019091019084016119f2565b5085821015611a2f5787850151600019600388901b60f8161c191681555b5050505050600190811b01905550565b60008251611a5181846020870161168c565b9190910192915050565b604081526000611a6e60408301856116b0565b90508260208301529392505050565b606081526000611a9060608301866116b0565b6001600160a01b0385166020840152905061186f60408301846116dc565b634e487b7160e01b600052603260045260246000fd5b6001600160a01b038316815260406020820181905260009061186f908301846116b0565b818103818111156105455761054561141d56fea264697066735822122045d4ad32b85b12730eefae8b948088d81988222791c6a27f8e91eb460afad1ff64736f6c63430008180033",
  "linkReferences": {},
  "deployedLinkReferences": {}
}