{
  "_format": "hh-sol-artifact-1",
  "contractName": "FarmerRegistry",
  "sourceName": "contracts/FarmerRegistry.sol",
  "abi": [
    {
      "inputs": [
        {
          "internalType": "address",
          "name": "initialOwner",
          "type": "address"
        }
      ],
      "stateMutability": "nonpayable",
      "type": "constructor"
    },
    {
      "inputs": [
        {
          "internalType": "address",
          "name": "owner",
          "type": "address"
        }
      ],
      "name": "OwnableInvalidOwner",
      "type": "error"
    },
    {
      "inputs": [
        {
          "internalType": "address",
          "name": "account",
          "type": "address"
        }
      ],
      "name": "OwnableUnauthorizedAccount",
      "type": "error"
    },
    {
      "anonymous": false,
      "inputs": [
        {
          "indexed": true,
          "internalType": "address",
          "name": "wallet",
          "type": "address"
        }
      ],
      "name": "FarmerBlacklisted",
      "type": "event"
    },
    {
      "anonymous": false,
      "inputs": [
        {
          "indexed": true,
          "internalType": "uint256",
          "name": "id",
          "type": "uint256"
        },
        {
          "indexed": true,
          "internalType": "address",
          "name": "wallet",
          "type": "address"
        },
        {
          "indexed": false,
          "internalType": "string",
          "name": "name",
          "type": "string"
        },
        {
          "indexed": false,
          "internalType": "string",
          "name": "village",
          "type": "string"
        }
      ],
      "name": "FarmerRegistered",
      "type": "event"
    },
    {
      "anonymous": false,
      "inputs": [
        {
          "indexed": true,
          "internalType": "address",
          "name": "wallet",
          "type": "address"
        }
      ],
      "name": "FarmerVerified",
      "type": "event"
    },
    {
      "anonymous": false,
      "inputs": [
        {
          "indexed": true,
          "internalType": "address",
          "name": "wallet",
          "type": "address"
        },
        {
          "indexed": false,
          "internalType": "uint256",
          "name": "newBalance",
          "type": "uint256"
        }
      ],
      "name": "InsurancePoolUpdated",
      "type": "event"
    },
    {
      "anonymous": false,
      "inputs": [
        {
          "indexed": true,
          "internalType": "address",
          "name": "previousOwner",
          "type": "address"
        },
        {
          "indexed": true,
          "internalType": "address",
          "name": "newOwner",
          "type": "address"
        }
      ],
      "name": "OwnershipTransferred",
      "type": "event"
    },
    {
      "anonymous": false,
      "inputs": [
        {
          "indexed": true,
          "internalType": "address",
          "name": "wallet",
          "type": "address"
        },
        {
          "indexed": false,
          "internalType": "uint256",
          "name": "newScore",
          "type": "uint256"
        }
      ],
      "name": "ReputationUpdated",
      "type": "event"
    },
    {
      "inputs": [
        {
          "internalType": "uint256",
          "name": "",
          "type": "uint256"
        }
      ],
      "name": "allFarmerAddresses",
      "outputs": [
        {
          "internalType": "address",
          "name": "",
          "type": "address"
        }
      ],
      "stateMutability": "view",
      "type": "function"
    },
    {
      "inputs": [],
      "name": "batchRegistryAddress",
      "outputs": [
        {
          "internalType": "address",
          "name": "",
          "type": "address"
        }
      ],
      "stateMutability": "view",
      "type": "function"
    },
    {
      "inputs": [
        {
          "internalType": "address",
          "name": "wallet",
          "type": "address"
        }
      ],
      "name": "blacklistFarmer",
      "outputs": [],
      "stateMutability": "nonpayable",
      "type": "function"
    },
    {
      "inputs": [
        {
          "internalType": "address",
          "name": "wallet",
          "type": "address"
        }
      ],
      "name": "calculateSubsidyPriority",
      "outputs": [
        {
          "internalType": "uint256",
          "name": "score",
          "type": "uint256"
        }
      ],
      "stateMutability": "view",
      "type": "function"
    },
    {
      "inputs": [
        {
          "internalType": "address",
          "name": "wallet",
          "type": "address"
        },
        {
          "internalType": "uint256",
          "name": "amountWei",
          "type": "uint256"
        }
      ],
      "name": "creditInsurancePool",
      "outputs": [],
      "stateMutability": "nonpayable",
      "type": "function"
    },
    {
      "inputs": [],
      "name": "disputeEngineAddress",
      "outputs": [
        {
          "internalType": "address",
          "name": "",
          "type": "address"
        }
      ],
      "stateMutability": "view",
      "type": "function"
    },
    {
      "inputs": [
        {
          "internalType": "uint256",
          "name": "",
          "type": "uint256"
        }
      ],
      "name": "farmerIdToAddress",
      "outputs": [
        {
          "internalType": "address",
          "name": "",
          "type": "address"
        }
      ],
      "stateMutability": "view",
      "type": "function"
    },
    {
      "inputs": [
        {
          "internalType": "address",
          "name": "wallet",
          "type": "address"
        }
      ],
      "name": "farmers",
      "outputs": [
        {
          "components": [
            {
              "internalType": "uint256",
              "name": "id",
              "type": "uint256"
            },
            {
              "internalType": "address",
              "name": "wallet",
              "type": "address"
            },
            {
              "internalType": "string",
              "name": "name",
              "type": "string"
            },
            {
              "internalType": "string",
              "name": "village",
              "type": "string"
            },
            {
              "internalType": "string",
              "name": "state",
              "type": "string"
            },
            {
              "internalType": "string",
              "name": "gpsLocation",
              "type": "string"
            },
            {
              "internalType": "uint8",
              "name": "incomeTier",
              "type": "uint8"
            },
            {
              "internalType": "uint256",
              "name": "landHoldingsCents",
              "type": "uint256"
            },
            {
              "internalType": "string[]",
              "name": "produceCategories",
              "type": "string[]"
            },
            {
              "internalType": "bool",
              "name": "isVerified",
              "type": "bool"
            },
            {
              "internalType": "bool",
              "name": "isBlacklisted",
              "type": "bool"
            },
            {
              "internalType": "uint256",
              "name": "registrationTimestamp",
              "type": "uint256"
            },
            {
              "internalType": "uint256",
              "name": "insurancePoolWei",
              "type": "uint256"
            },
            {
              "internalType": "uint256",
              "name": "reputationScore",
              "type": "uint256"
            },
            {
              "internalType": "uint256",
              "name": "totalBatchesCreated",
              "type": "uint256"
            },
            {
              "internalType": "uint256",
              "name": "totalDisputesAgainst",
              "type": "uint256"
            },
            {
              "internalType": "uint256",
              "name": "totalDisputesGuilty",
              "type": "uint256"
            }
          ],
          "internalType": "struct FarmerRegistry.Farmer",
          "name": "",
          "type": "tuple"
        }
      ],
      "stateMutability": "view",
      "type": "function"
    },
    {
      "inputs": [],
      "name": "getAllFarmers",
      "outputs": [
        {
          "internalType": "address[]",
          "name": "",
          "type": "address[]"
        }
      ],
      "stateMutability": "view",
      "type": "function"
    },
    {
      "inputs": [
        {
          "internalType": "address",
          "name": "wallet",
          "type": "address"
        }
      ],
      "name": "getFarmer",
      "outputs": [
        {
          "components": [
            {
              "internalType": "uint256",
              "name": "id",
              "type": "uint256"
            },
            {
              "internalType": "address",
              "name": "wallet",
              "type": "address"
            },
            {
              "internalType": "string",
              "name": "name",
              "type": "string"
            },
            {
              "internalType": "string",
              "name": "village",
              "type": "string"
            },
            {
              "internalType": "string",
              "name": "state",
              "type": "string"
            },
            {
              "internalType": "string",
              "name": "gpsLocation",
              "type": "string"
            },
            {
              "internalType": "uint8",
              "name": "incomeTier",
              "type": "uint8"
            },
            {
              "internalType": "uint256",
              "name": "landHoldingsCents",
              "type": "uint256"
            },
            {
              "internalType": "string[]",
              "name": "produceCategories",
              "type": "string[]"
            },
            {
              "internalType": "bool",
              "name": "isVerified",
              "type": "bool"
            },
            {
              "internalType": "bool",
              "name": "isBlacklisted",
              "type": "bool"
            },
            {
              "internalType": "uint256",
              "name": "registrationTimestamp",
              "type": "uint256"
            },
            {
              "internalType": "uint256",
              "name": "insurancePoolWei",
              "type": "uint256"
            },
            {
              "internalType": "uint256",
              "name": "reputationScore",
              "type": "uint256"
            },
            {
              "internalType": "uint256",
              "name": "totalBatchesCreated",
              "type": "uint256"
            },
            {
              "internalType": "uint256",
              "name": "totalDisputesAgainst",
              "type": "uint256"
            },
            {
              "internalType": "uint256",
              "name": "totalDisputesGuilty",
              "type": "uint256"
            }
          ],
          "internalType": "struct FarmerRegistry.Farmer",
          "name": "",
          "type": "tuple"
        }
      ],
      "stateMutability": "view",
      "type": "function"
    },
    {
      "inputs": [
        {
          "internalType": "address",
          "name": "wallet",
          "type": "address"
        }
      ],
      "name": "incrementBatchCount",
      "outputs": [],
      "stateMutability": "nonpayable",
      "type": "function"
    },
    {
      "inputs": [],
      "name": "owner",
      "outputs": [
        {
          "internalType": "address",
          "name": "",
          "type": "address"
        }
      ],
      "stateMutability": "view",
      "type": "function"
    },
    {
      "inputs": [
        {
          "internalType": "string",
          "name": "name",
          "type": "string"
        },
        {
          "internalType": "string",
          "name": "village",
          "type": "string"
        },
        {
          "internalType": "string",
          "name": "state",
          "type": "string"
        },
        {
          "internalType": "string",
          "name": "gpsLocation",
          "type": "string"
        },
        {
          "internalType": "uint8",
          "name": "incomeTier",
          "type": "uint8"
        },
        {
          "internalType": "uint256",
          "name": "landHoldingsCents",
          "type": "uint256"
        },
        {
          "internalType": "string[]",
          "name": "produceCategories",
          "type": "string[]"
        }
      ],
      "name": "registerFarmer",
      "outputs": [
        {
          "internalType": "uint256",
          "name": "farmerId",
          "type": "uint256"
        }
      ],
      "stateMutability": "nonpayable",
      "type": "function"
    },
    {
      "inputs": [
        {
          "internalType": "address",
          "name": "",
          "type": "address"
        }
      ],
      "name": "registeredFarmers",
      "outputs": [
        {
          "internalType": "bool",
          "name": "",
          "type": "bool"
        }
      ],
      "stateMutability": "view",
      "type": "function"
    },
    {
      "inputs": [],
      "name": "renounceOwnership",
      "outputs": [],
      "stateMutability": "nonpayable",
      "type": "function"
    },
    {
      "inputs": [
        {
          "internalType": "address",
          "name": "addr",
          "type": "address"
        }
      ],
      "name": "setBatchRegistryAddress",
      "outputs": [],
      "stateMutability": "nonpayable",
      "type": "function"
    },
    {
      "inputs": [
        {
          "internalType": "address",
          "name": "addr",
          "type": "address"
        }
      ],
      "name": "setDisputeEngineAddress",
      "outputs": [],
      "stateMutability": "nonpayable",
      "type": "function"
    },
    {
      "inputs": [
        {
          "internalType": "address",
          "name": "newOwner",
          "type": "address"
        }
      ],
      "name": "transferOwnership",
      "outputs": [],
      "stateMutability": "nonpayable",
      "type": "function"
    },
    {
      "inputs": [
        {
          "internalType": "address",
          "name": "wallet",
          "type": "address"
        },
        {
          "internalType": "int8",
          "name": "delta",
          "type": "int8"
        }
      ],
      "name": "updateReputation",
      "outputs": [],
      "stateMutability": "nonpayable",
      "type": "function"
    },
    {
      "inputs": [
        {
          "internalType": "address",
          "name": "wallet",
          "type": "address"
        }
      ],
      "name": "verifyFarmer",
      "outputs": [],
      "stateMutability": "nonpayable",
      "type": "function"
    }
  ],
  "bytecode": "0x60806040523480156200001157600080fd5b5060405162002117380380620021178339810160408190526200003491620000c7565b806001600160a01b0381166200006457604051631e4fbdf760e01b81526000600482015260240160405180910390fd5b6200006f8162000077565b5050620000f9565b600080546001600160a01b038381166001600160a01b0319831681178455604051919092169283917f8be0079c531659141344cd1fd0a4f28419497f9722a3daafe3b4186f6b6457e09190a35050565b600060208284031215620000da57600080fd5b81516001600160a01b0381168114620000f257600080fd5b9392505050565b61200e80620001096000396000f3fe608060405234801561001057600080fd5b506004361061012c5760003560e01c8063a7c59788116100ad578063d5a528a211610071578063d5a528a2146102b3578063e7609c16146102c6578063f0bdff3b146102d9578063f2fde38b146102ec578063ff2ea2f2146102ff57600080fd5b8063a7c5978814610230578063bc7b6bd314610251578063c66d85b414610264578063c90df9bc1461028d578063d1de87c6146102a057600080fd5b8063715018a6116100f4578063715018a6146101aa57806383c5b0aa146101b25780638da5cb5b146101e557806396c622231461020a578063a022da511461021d57600080fd5b80631ddbe66b14610131578063235db9f514610146578063401b216814610159578063424d5d6714610182578063536954e414610195575b600080fd5b61014461013f3660046117c9565b610312565b005b6101446101543660046117c9565b61033c565b61016c6101673660046117c9565b6103d4565b604051610179919061188b565b60405180910390f35b6101446101903660046117c9565b6107c0565b61019d610851565b60405161017991906119eb565b6101446108b3565b6101d56101c03660046117c9565b60046020526000908152604090205460ff1681565b6040519015158152602001610179565b6000546001600160a01b03165b6040516001600160a01b039091168152602001610179565b6101f2610218366004611a38565b6108c7565b6006546101f2906001600160a01b031681565b61024361023e3660046117c9565b6108f1565b604051908152602001610179565b6007546101f2906001600160a01b031681565b6101f2610272366004611a38565b6003602052600090815260409020546001600160a01b031681565b61014461029b3660046117c9565b610b5c565b6102436102ae366004611bb8565b610c37565b6101446102c1366004611ca4565b610edf565b61016c6102d43660046117c9565b61100a565b6101446102e7366004611cce565b61138e565b6101446102fa3660046117c9565b611577565b61014461030d3660046117c9565b6115b5565b61031a6115df565b600780546001600160a01b0319166001600160a01b0392909216919091179055565b6103446115df565b6001600160a01b03811660009081526004602052604090205460ff166103855760405162461bcd60e51b815260040161037c90611d0b565b60405180910390fd5b6001600160a01b038116600081815260026020526040808220600901805460ff19166001179055517f97fd55e582c49240f46c243bd781dd3df6defaecbdb51de7b250b3162bdc99ab9190a250565b6103dc61165c565b6001600160a01b03808316600090815260026020818152604092839020835161022081018552815481526001820154909516918501919091529081018054919284019161042890611d3a565b80601f016020809104026020016040519081016040528092919081815260200182805461045490611d3a565b80156104a15780601f10610476576101008083540402835291602001916104a1565b820191906000526020600020905b81548152906001019060200180831161048457829003601f168201915b505050505081526020016003820180546104ba90611d3a565b80601f01602080910402602001604051908101604052809291908181526020018280546104e690611d3a565b80156105335780601f1061050857610100808354040283529160200191610533565b820191906000526020600020905b81548152906001019060200180831161051657829003601f168201915b5050505050815260200160048201805461054c90611d3a565b80601f016020809104026020016040519081016040528092919081815260200182805461057890611d3a565b80156105c55780601f1061059a576101008083540402835291602001916105c5565b820191906000526020600020905b8154815290600101906020018083116105a857829003601f168201915b505050505081526020016005820180546105de90611d3a565b80601f016020809104026020016040519081016040528092919081815260200182805461060a90611d3a565b80156106575780601f1061062c57610100808354040283529160200191610657565b820191906000526020600020905b81548152906001019060200180831161063a57829003601f168201915b505050505081526020016006820160009054906101000a900460ff1660ff1660ff1681526020016007820154815260200160088201805480602002602001604051908101604052809291908181526020016000905b828210156107585783829060005260206000200180546106cb90611d3a565b80601f01602080910402602001604051908101604052809291908181526020018280546106f790611d3a565b80156107445780601f1061071957610100808354040283529160200191610744565b820191906000526020600020905b81548152906001019060200180831161072757829003601f168201915b5050505050815260200190600101906106ac565b50505090825250600982015460ff80821615156020840152610100918290041615156040830152600a8301546060830152600b8301546080830152600c83015460a0830152600d83015460c0830152600e83015460e0830152600f9092015491015292915050565b6107c86115df565b6001600160a01b03811660009081526004602052604090205460ff166108005760405162461bcd60e51b815260040161037c90611d0b565b6001600160a01b038116600081815260026020526040808220600901805461ff001916610100179055517f8b2f5de8a0d6073ea3bb78bdb6a83936c392b611769996fb701f082e3ae20b239190a250565b606060058054806020026020016040519081016040528092919081815260200182805480156108a957602002820191906000526020600020905b81546001600160a01b0316815260019091019060200180831161088b575b5050505050905090565b6108bb6115df565b6108c5600061160c565b565b600581815481106108d757600080fd5b6000918252602090912001546001600160a01b0316905081565b6001600160a01b03811660009081526004602052604081205460ff166109295760405162461bcd60e51b815260040161037c90611d0b565b6001600160a01b0382166000908152600260205260408120600681015490919060ff1660010361095b57506064610976565b600682015460ff1660020361097257506032610976565b5060005b6000606483600701541161098c575060646109a5565b6101f48360070154116109a1575060326109a5565b50600a5b6000600a84600d0154106109bb575060646109e7565b600584600d0154106109cf5750603c6109e7565b600184600d0154106109e35750601e6109e7565b5060005b603260005b6008860154811015610afa576000866008018281548110610a0f57610a0f611d74565b90600052602060002001604051602001610a299190611d8a565b6040516020818303038152906040528051906020012090507fc47df52ce30e6a0063107bf3125962a9914a7e908b090ac3fabcefd28588e2d4811480610a8e57507f0dd6e2efe9891bc8ac3beea9ce658cf4e73953a02ccef762f663967cb2fd1d9981145b80610ab857507fb7ddffa95815ee84a2869e04c15dc679ec551e6f1f202598b299ea013d2d277d81145b80610ae257507f01e3071fe5a2eabcfcc970a7cffa74dbfec087ab411e1f917c3a4fbf3e48072881145b15610af1576064925050610afa565b506001016109ec565b506064610b0882600f611e16565b610b13846014611e16565b610b1e866019611e16565b610b29886028611e16565b610b339190611e33565b610b3d9190611e33565b610b479190611e33565b610b519190611e46565b979650505050505050565b6000546001600160a01b0316331480610b7f57506006546001600160a01b031633145b610bcb5760405162461bcd60e51b815260206004820152601a60248201527f4e6f74206f776e6572206f722042617463685265676973747279000000000000604482015260640161037c565b6001600160a01b03811660009081526004602052604090205460ff16610c035760405162461bcd60e51b815260040161037c90611d0b565b6001600160a01b0381166000908152600260205260408120600d01805460019290610c2f908490611e33565b909155505050565b3360009081526004602052604081205460ff1615610c975760405162461bcd60e51b815260206004820152601960248201527f4661726d657220616c7265616479207265676973746572656400000000000000604482015260640161037c565b60018460ff1610158015610caf575060038460ff1611155b610cfb5760405162461bcd60e51b815260206004820152601760248201527f496e636f6d652074696572206d75737420626520312d33000000000000000000604482015260640161037c565b6000885111610d435760405162461bcd60e51b81526020600482015260146024820152734e616d652063616e6e6f7420626520656d70747960601b604482015260640161037c565b610d51600180546001019055565b6001543360008181526002602081905260409091208381556001810180546001600160a01b031916909317909255919250908101610d8f8a82611eb9565b5060038101610d9e8982611eb9565b5060048101610dad8882611eb9565b5060058101610dbc8782611eb9565b5060068101805460ff191660ff8716179055600781018490558251610dea90600883019060208601906116f0565b5060098101805461ffff1916905542600a8201556000600b82018190556064600c830155600d8201819055600e8201819055600f82018190558281526003602090815260408083208054336001600160a01b031991821681179092558185526004909352818420805460ff191660019081179091556005805491820181559094527f036b6384b5eca791c62761152d0c79bb0604c104a5fb6f4eb0703f3154bb3db0909301805490921683179091555183907f49bd2bcb8cdba3921e4541d10b502b8bbe9896d409600bd38672815a7f17b3f890610ecb908d908d90611f79565b60405180910390a350979650505050505050565b6000546001600160a01b0316331480610f0257506006546001600160a01b031633145b610f4e5760405162461bcd60e51b815260206004820152601a60248201527f4e6f74206f776e6572206f722042617463685265676973747279000000000000604482015260640161037c565b6001600160a01b03821660009081526004602052604090205460ff16610f865760405162461bcd60e51b815260040161037c90611d0b565b6001600160a01b0382166000908152600260205260408120600b018054839290610fb1908490611e33565b90915550506001600160a01b038216600081815260026020908152604091829020600b015491519182527f9bb4a8b3bb633716a0b2d6cad264e6273f0ee9a031f793d9d9ad031ca4e5e855910160405180910390a25050565b61101261165c565b6001600160a01b03808316600090815260026020818152604092839020835161022081018552815481526001820154909516918501919091529081018054919284019161105e90611d3a565b80601f016020809104026020016040519081016040528092919081815260200182805461108a90611d3a565b80156110d75780601f106110ac576101008083540402835291602001916110d7565b820191906000526020600020905b8154815290600101906020018083116110ba57829003601f168201915b505050505081526020016003820180546110f090611d3a565b80601f016020809104026020016040519081016040528092919081815260200182805461111c90611d3a565b80156111695780601f1061113e57610100808354040283529160200191611169565b820191906000526020600020905b81548152906001019060200180831161114c57829003601f168201915b5050505050815260200160048201805461118290611d3a565b80601f01602080910402602001604051908101604052809291908181526020018280546111ae90611d3a565b80156111fb5780601f106111d0576101008083540402835291602001916111fb565b820191906000526020600020905b8154815290600101906020018083116111de57829003601f168201915b5050505050815260200160058201805461121490611d3a565b80601f016020809104026020016040519081016040528092919081815260200182805461124090611d3a565b801561128d5780601f106112625761010080835404028352916020019161128d565b820191906000526020600020905b81548152906001019060200180831161127057829003601f168201915b505050505081526020016006820160009054906101000a900460ff1660ff1660ff1681526020016007820154815260200160088201805480602002602001604051908101604052809291908181526020016000905b8282101561075857838290600052602060002001805461130190611d3a565b80601f016020809104026020016040519081016040528092919081815260200182805461132d90611d3a565b801561137a5780601f1061134f5761010080835404028352916020019161137a565b820191906000526020600020905b81548152906001019060200180831161135d57829003601f168201915b5050505050815260200190600101906112e2565b6000546001600160a01b03163314806113b157506007546001600160a01b031633145b6113fd5760405162461bcd60e51b815260206004820152601a60248201527f4e6f74206f776e6572206f722044697370757465456e67696e65000000000000604482015260640161037c565b6001600160a01b03821660009081526004602052604090205460ff166114355760405162461bcd60e51b815260040161037c90611d0b565b6001600160a01b0382166000908152600260205260408120600c01549082810b12156114c057600061146683611fa7565b60ff169050818110611493576001600160a01b0384166000908152600260205260408120600c01556114ba565b61149d8183611fc5565b6001600160a01b0385166000908152600260205260409020600c01555b50611522565b60ff821660006114d08284611e33565b90506064811115611500576001600160a01b03851660009081526002602052604090206064600c9091015561151f565b6001600160a01b0385166000908152600260205260409020600c018190555b50505b6001600160a01b038316600081815260026020908152604091829020600c015491519182527ffc577563f1b9a0461e24abef1e1fcc0d33d3d881f20b5df6dda59de4aae2c821910160405180910390a2505050565b61157f6115df565b6001600160a01b0381166115a957604051631e4fbdf760e01b81526000600482015260240161037c565b6115b28161160c565b50565b6115bd6115df565b600680546001600160a01b0319166001600160a01b0392909216919091179055565b6000546001600160a01b031633146108c55760405163118cdaa760e01b815233600482015260240161037c565b600080546001600160a01b038381166001600160a01b0319831681178455604051919092169283917f8be0079c531659141344cd1fd0a4f28419497f9722a3daafe3b4186f6b6457e09190a35050565b6040518061022001604052806000815260200160006001600160a01b0316815260200160608152602001606081526020016060815260200160608152602001600060ff16815260200160008152602001606081526020016000151581526020016000151581526020016000815260200160008152602001600081526020016000815260200160008152602001600081525090565b828054828255906000526020600020908101928215611736579160200282015b8281111561173657825182906117269082611eb9565b5091602001919060010190611710565b50611742929150611746565b5090565b8082111561174257600061175a8282611763565b50600101611746565b50805461176f90611d3a565b6000825580601f1061177f575050565b601f0160209004906000526020600020908101906115b291905b808211156117425760008155600101611799565b80356001600160a01b03811681146117c457600080fd5b919050565b6000602082840312156117db57600080fd5b6117e4826117ad565b9392505050565b6000815180845260005b81811015611811576020818501810151868301820152016117f5565b506000602082860101526020601f19601f83011685010191505092915050565b60008282518085526020808601955060208260051b8401016020860160005b8481101561187e57601f1986840301895261186c8383516117eb565b98840198925090830190600101611850565b5090979650505050505050565b6020815281516020820152600060208301516118b260408401826001600160a01b03169052565b5060408301516102208060608501526118cf6102408501836117eb565b91506060850151601f19808685030160808701526118ed84836117eb565b935060808701519150808685030160a087015261190a84836117eb565b935060a08701519150808685030160c087015261192784836117eb565b935060c0870151915061193f60e087018360ff169052565b60e0870151915061010082818801528088015192505061012081878603018188015261196b8584611831565b945080880151925050506101406119858187018315159052565b860151905061016061199a8682018315159052565b860151610180868101919091528601516101a0808701919091528601516101c0808701919091528601516101e080870191909152860151610200808701919091529095015193019290925250919050565b6020808252825182820181905260009190848201906040850190845b81811015611a2c5783516001600160a01b031683529284019291840191600101611a07565b50909695505050505050565b600060208284031215611a4a57600080fd5b5035919050565b634e487b7160e01b600052604160045260246000fd5b604051601f8201601f1916810167ffffffffffffffff81118282101715611a9057611a90611a51565b604052919050565b600082601f830112611aa957600080fd5b813567ffffffffffffffff811115611ac357611ac3611a51565b611ad6601f8201601f1916602001611a67565b818152846020838601011115611aeb57600080fd5b816020850160208301376000918101602001919091529392505050565b803560ff811681146117c457600080fd5b600082601f830112611b2a57600080fd5b8135602067ffffffffffffffff80831115611b4757611b47611a51565b8260051b611b56838201611a67565b9384528581018301938381019088861115611b7057600080fd5b84880192505b85831015611bac57823584811115611b8e5760008081fd5b611b9c8a87838c0101611a98565b8352509184019190840190611b76565b98975050505050505050565b600080600080600080600060e0888a031215611bd357600080fd5b873567ffffffffffffffff80821115611beb57600080fd5b611bf78b838c01611a98565b985060208a0135915080821115611c0d57600080fd5b611c198b838c01611a98565b975060408a0135915080821115611c2f57600080fd5b611c3b8b838c01611a98565b965060608a0135915080821115611c5157600080fd5b611c5d8b838c01611a98565b9550611c6b60808b01611b08565b945060a08a0135935060c08a0135915080821115611c8857600080fd5b50611c958a828b01611b19565b91505092959891949750929550565b60008060408385031215611cb757600080fd5b611cc0836117ad565b946020939093013593505050565b60008060408385031215611ce157600080fd5b611cea836117ad565b915060208301358060000b8114611d0057600080fd5b809150509250929050565b60208082526015908201527411985c9b595c881b9bdd081c9959da5cdd195c9959605a1b604082015260600190565b600181811c90821680611d4e57607f821691505b602082108103611d6e57634e487b7160e01b600052602260045260246000fd5b50919050565b634e487b7160e01b600052603260045260246000fd5b6000808354611d9881611d3a565b60018281168015611db05760018114611dc557611df4565b60ff1984168752821515830287019450611df4565b8760005260208060002060005b85811015611deb5781548a820152908401908201611dd2565b50505082870194505b50929695505050505050565b634e487b7160e01b600052601160045260246000fd5b8082028115828204841417611e2d57611e2d611e00565b92915050565b80820180821115611e2d57611e2d611e00565b600082611e6357634e487b7160e01b600052601260045260246000fd5b500490565b601f821115611eb4576000816000526020600020601f850160051c81016020861015611e915750805b601f850160051c820191505b81811015611eb057828155600101611e9d565b5050505b505050565b815167ffffffffffffffff811115611ed357611ed3611a51565b611ee781611ee18454611d3a565b84611e68565b602080601f831160018114611f1c5760008415611f045750858301515b600019600386901b1c1916600185901b178555611eb0565b600085815260208120601f198616915b82811015611f4b57888601518255948401946001909101908401611f2c565b5085821015611f695787850151600019600388901b60f8161c191681555b5050505050600190811b01905550565b604081526000611f8c60408301856117eb565b8281036020840152611f9e81856117eb565b95945050505050565b600081810b60808101611fbc57611fbc611e00565b60000392915050565b81810381811115611e2d57611e2d611e0056fea264697066735822122075bfd11b59878cbb7ac513f007af586833454cbec4e64d41e3531590fd20a18e64736f6c63430008180033",
  "linkReferences": {},
  "deployedLinkReferences": {}
}