{
  "_format": "hh-sol-artifact-1",
  "contractName": "FarmChainRegistry",
  "sourceName": "contracts/FarmChainRegistry.sol",
  "abi": [
    {
      "inputs": [],
      "stateMutability": "nonpayable",
      "type": "constructor"
    },
    {
      "inputs": [],
      "name": "AccessControlBadConfirmation",
      "type": "error"
    },
    {
      "inputs": [
        {
          "internalType": "address",
          "name": "account",
          "type": "address"
        },
        {
          "internalType": "bytes32",
          "name": "neededRole",
          "type": "bytes32"
        }
      ],
      "name": "AccessControlUnauthorizedAccount",
      "type": "error"
    },
    {
      "anonymous": false,
      "inputs": [
        {
          "indexed": true,
          "internalType": "address",
          "name": "walletAddress",
          "type": "address"
        },
        {
          "indexed": false,
          "internalType": "enum FarmChainRegistry.Role",
          "name": "role",
          "type": "uint8"
        },
        {
          "indexed": false,
          "internalType": "bytes32",
          "name": "locationHash",
          "type": "bytes32"
        }
      ],
      "name": "ParticipantRegistered",
      "type": "event"
    },
    {
      "anonymous": false,
      "inputs": [
        {
          "indexed": true,
          "internalType": "address",
          "name": "walletAddress",
          "type": "address"
        }
      ],
      "name": "ParticipantVerified",
      "type": "event"
    },
    {
      "anonymous": false,
      "inputs": [
        {
          "indexed": true,
          "internalType": "bytes32",
          "name": "role",
          "type": "bytes32"
        },
        {
          "indexed": true,
          "internalType": "bytes32",
          "name": "previousAdminRole",
          "type": "bytes32"
        },
        {
          "indexed": true,
          "internalType": "bytes32",
          "name": "newAdminRole",
          "type": "bytes32"
        }
      ],
      "name": "RoleAdminChanged",
      "type": "event"
    },
    {
      "anonymous": false,
      "inputs": [
        {
          "indexed": true,
          "internalType": "bytes32",
          "name": "role",
          "type": "bytes32"
        },
        {
          "indexed": true,
          "internalType": "address",
          "name": "account",
          "type": "address"
        },
        {
          "indexed": true,
          "internalType": "address",
          "name": "sender",
          "type": "address"
        }
      ],
      "name": "RoleGranted",
      "type": "event"
    },
    {
      "anonymous": false,
      "inputs": [
        {
          "indexed": true,
          "internalType": "bytes32",
          "name": "role",
          "type": "bytes32"
        },
        {
          "indexed": true,
          "internalType": "address",
          "name": "account",
          "type": "address"
        },
        {
          "indexed": true,
          "internalType": "address",
          "name": "sender",
          "type": "address"
        }
      ],
      "name": "RoleRevoked",
      "type": "event"
    },
    {
      "inputs": [],
      "name": "DEFAULT_ADMIN_ROLE",
      "outputs": [
        {
          "internalType": "bytes32",
          "name": "",
          "type": "bytes32"
        }
      ],
      "stateMutability": "view",
      "type": "function"
    },
    {
      "inputs": [],
      "name": "VERIFIER_ROLE",
      "outputs": [
        {
          "internalType": "bytes32",
          "name": "",
          "type": "bytes32"
        }
      ],
      "stateMutability": "view",
      "type": "function"
    },
    {
      "inputs": [
        {
          "internalType": "address",
          "name": "_address",
          "type": "address"
        }
      ],
      "name": "getParticipantRole",
      "outputs": [
        {
          "internalType": "enum FarmChainRegistry.Role",
          "name": "",
          "type": "uint8"
        }
      ],
      "stateMutability": "view",
      "type": "function"
    },
    {
      "inputs": [
        {
          "internalType": "bytes32",
          "name": "role",
          "type": "bytes32"
        }
      ],
      "name": "getRoleAdmin",
      "outputs": [
        {
          "internalType": "bytes32",
          "name": "",
          "type": "bytes32"
        }
      ],
      "stateMutability": "view",
      "type": "function"
    },
    {
      "inputs": [
        {
          "internalType": "bytes32",
          "name": "role",
          "type": "bytes32"
        },
        {
          "internalType": "address",
          "name": "account",
          "type": "address"
        }
      ],
      "name": "grantRole",
      "outputs": [],
      "stateMutability": "nonpayable",
      "type": "function"
    },
    {
      "inputs": [
        {
          "internalType": "bytes32",
          "name": "role",
          "type": "bytes32"
        },
        {
          "internalType": "address",
          "name": "account",
          "type": "address"
        }
      ],
      "name": "hasRole",
      "outputs": [
        {
          "internalType": "bool",
          "name": "",
          "type": "bool"
        }
      ],
      "stateMutability": "view",
      "type": "function"
    },
    {
      "inputs": [
        {
          "internalType": "address",
          "name": "",
          "type": "address"
        }
      ],
      "name": "isRegistered",
      "outputs": [
        {
          "internalType": "bool",
          "name": "",
          "type": "bool"
        }
      ],
      "stateMutability": "view",
      "type": "function"
    },
    {
      "inputs": [
        {
          "internalType": "address",
          "name": "_address",
          "type": "address"
        }
      ],
      "name": "isVerifiedParticipant",
      "outputs": [
        {
          "internalType": "bool",
          "name": "",
          "type": "bool"
        }
      ],
      "stateMutability": "view",
      "type": "function"
    },
    {
      "inputs": [
        {
          "internalType": "address",
          "name": "",
          "type": "address"
        }
      ],
      "name": "participants",
      "outputs": [
        {
          "internalType": "address",
          "name": "walletAddress",
          "type": "address"
        },
        {
          "internalType": "enum FarmChainRegistry.Role",
          "name": "role",
          "type": "uint8"
        },
        {
          "internalType": "bytes32",
          "name": "locationHash",
          "type": "bytes32"
        },
        {
          "internalType": "bool",
          "name": "isVerified",
          "type": "bool"
        }
      ],
      "stateMutability": "view",
      "type": "function"
    },
    {
      "inputs": [
        {
          "internalType": "address",
          "name": "_walletAddress",
          "type": "address"
        },
        {
          "internalType": "enum FarmChainRegistry.Role",
          "name": "_role",
          "type": "uint8"
        },
        {
          "internalType": "bytes32",
          "name": "_locationHash",
          "type": "bytes32"
        }
      ],
      "name": "registerParticipant",
      "outputs": [],
      "stateMutability": "nonpayable",
      "type": "function"
    },
    {
      "inputs": [
        {
          "internalType": "bytes32",
          "name": "role",
          "type": "bytes32"
        },
        {
          "internalType": "address",
          "name": "callerConfirmation",
          "type": "address"
        }
      ],
      "name": "renounceRole",
      "outputs": [],
      "stateMutability": "nonpayable",
      "type": "function"
    },
    {
      "inputs": [
        {
          "internalType": "bytes32",
          "name": "role",
          "type": "bytes32"
        },
        {
          "internalType": "address",
          "name": "account",
          "type": "address"
        }
      ],
      "name": "revokeRole",
      "outputs": [],
      "stateMutability": "nonpayable",
      "type": "function"
    },
    {
      "inputs": [
        {
          "internalType": "bytes4",
          "name": "interfaceId",
          "type": "bytes4"
        }
      ],
      "name": "supportsInterface",
      "outputs": [
        {
          "internalType": "bool",
          "name": "",
          "type": "bool"
        }
      ],
      "stateMutability": "view",
      "type": "function"
    },
    {
      "inputs": [
        {
          "internalType": "address",
          "name": "_walletAddress",
          "type": "address"
        }
      ],
      "name": "verifyParticipant",
      "outputs": [],
      "stateMutability": "nonpayable",
      "type": "function"
    }
  ],
  "bytecode": "0x608060405234801561000f575f5ffd5b5061001a5f3361004b565b506100457f0ce23c3e399818cfee81a7ab0880f714e53d7672b08df0fa62f2843416e1ea093361004b565b506100f4565b5f828152602081815260408083206001600160a01b038516845290915281205460ff166100eb575f838152602081815260408083206001600160a01b03861684529091529020805460ff191660011790556100a33390565b6001600160a01b0316826001600160a01b0316847f2f8788117e7eff1d82e926ec794901d17c78024a50270940304540a733656f0d60405160405180910390a45060016100ee565b505f5b92915050565b610a28806101015f395ff3fe608060405234801561000f575f5ffd5b50600436106100e5575f3560e01c80635cf5a05811610088578063a217fddf11610063578063a217fddf1461022c578063c3c5a54714610233578063d547741f14610255578063e7705db614610268575f5ffd5b80635cf5a058146101e6578063643a76951461020657806391d1485414610219575f5ffd5b8063248a9ca3116100c3578063248a9ca31461017d57806326e0a7e8146101ad5780632f2ff15d146101c057806336568abe146101d3575f5ffd5b806301ffc9a7146100e957806309e69ede146101115780631d7a83e514610168575b5f5ffd5b6100fc6100f7366004610832565b61028f565b60405190151581526020015b60405180910390f35b61015861011f36600461087b565b600160208190525f91825260409091208054918101546002909101546001600160a01b0383169260ff600160a01b909104811692911684565b60405161010894939291906108c8565b61017b6101763660046108fc565b6102c5565b005b61019f61018b36600461093b565b5f9081526020819052604090206001015490565b604051908152602001610108565b6100fc6101bb36600461087b565b610479565b61017b6101ce366004610952565b6104bc565b61017b6101e1366004610952565b6104e6565b6101f96101f436600461087b565b61051e565b604051610108919061097c565b61017b61021436600461087b565b61057a565b6100fc610227366004610952565b6106a4565b61019f5f81565b6100fc61024136600461087b565b60026020525f908152604090205460ff1681565b61017b610263366004610952565b6106cc565b61019f7f0ce23c3e399818cfee81a7ab0880f714e53d7672b08df0fa62f2843416e1ea0981565b5f6001600160e01b03198216637965db0b60e01b14806102bf57506301ffc9a760e01b6001600160e01b03198316145b92915050565b5f6102cf816106f0565b6001600160a01b0384165f9081526002602052604090205460ff16156103565760405162461bcd60e51b815260206004820152603160248201527f4661726d436861696e52656769737472793a205061727469636970616e7420616044820152701b1c9958591e481c9959da5cdd195c9959607a1b60648201526084015b60405180910390fd5b6040518060800160405280856001600160a01b0316815260200184600381111561038257610382610894565b815260208082018590525f60409283018190526001600160a01b038089168252600183529290208351815493166001600160a01b0319841681178255918401519092909183916001600160a81b03191617600160a01b8360038111156103ea576103ea610894565b02179055506040828101516001808401919091556060909301516002928301805491151560ff199283161790556001600160a01b0388165f81815260209490945292829020805490911690931790925590517fad47e7a0710250e07cdca8b9bd49a13c2f451a48fe946660b2ab36d69ec7e1bc9061046b908690869061098a565b60405180910390a250505050565b6001600160a01b0381165f9081526002602052604081205460ff1680156102bf5750506001600160a01b03165f9081526001602052604090206002015460ff1690565b5f828152602081905260409020600101546104d6816106f0565b6104e083836106fd565b50505050565b6001600160a01b038116331461050f5760405163334bd91960e11b815260040160405180910390fd5b610519828261078c565b505050565b6001600160a01b0381165f9081526002602052604081205460ff166105555760405162461bcd60e51b815260040161034d906109a5565b506001600160a01b03165f90815260016020526040902054600160a01b900460ff1690565b7f0ce23c3e399818cfee81a7ab0880f714e53d7672b08df0fa62f2843416e1ea096105a4816106f0565b6001600160a01b0382165f9081526002602052604090205460ff166105db5760405162461bcd60e51b815260040161034d906109a5565b6001600160a01b0382165f9081526001602052604090206002015460ff16156106525760405162461bcd60e51b815260206004820152602360248201527f4661726d436861696e52656769737472793a20416c72656164792076657269666044820152621a595960ea1b606482015260840161034d565b6001600160a01b0382165f818152600160208190526040808320600201805460ff1916909217909155517fbb5006a60fdc89afdf583611f1f18d2b61de8bc75a34fe7e60dcdb13ea87d77d9190a25050565b5f918252602082815260408084206001600160a01b0393909316845291905290205460ff1690565b5f828152602081905260409020600101546106e6816106f0565b6104e0838361078c565b6106fa81336107f5565b50565b5f61070883836106a4565b610785575f838152602081815260408083206001600160a01b03861684529091529020805460ff1916600117905561073d3390565b6001600160a01b0316826001600160a01b0316847f2f8788117e7eff1d82e926ec794901d17c78024a50270940304540a733656f0d60405160405180910390a45060016102bf565b505f6102bf565b5f61079783836106a4565b15610785575f838152602081815260408083206001600160a01b0386168085529252808320805460ff1916905551339286917ff6391f5c32d9c69d2a47ea670b442974b53935d1edc7fd64eb21e047a839171b9190a45060016102bf565b6107ff82826106a4565b61082e5760405163e2517d3f60e01b81526001600160a01b03821660048201526024810183905260440161034d565b5050565b5f60208284031215610842575f5ffd5b81356001600160e01b031981168114610859575f5ffd5b9392505050565b80356001600160a01b0381168114610876575f5ffd5b919050565b5f6020828403121561088b575f5ffd5b61085982610860565b634e487b7160e01b5f52602160045260245ffd5b600481106108c457634e487b7160e01b5f52602160045260245ffd5b9052565b6001600160a01b0385168152608081016108e560208301866108a8565b836040830152821515606083015295945050505050565b5f5f5f6060848603121561090e575f5ffd5b61091784610860565b925060208401356004811061092a575f5ffd5b929592945050506040919091013590565b5f6020828403121561094b575f5ffd5b5035919050565b5f5f60408385031215610963575f5ffd5b8235915061097360208401610860565b90509250929050565b602081016102bf82846108a8565b6040810161099882856108a8565b8260208301529392505050565b6020808252602d908201527f4661726d436861696e52656769737472793a205061727469636970616e74206e60408201526c1bdd081c9959da5cdd195c9959609a1b60608201526080019056fea2646970667358221220ec2cf5033d227f516a8d02e3eaacec1aa89080c6a62fee1f01848ff19027797d64736f6c634300081c0033",
  "linkReferences": {},
  "deployedLinkReferences": {}
}