{
  "_format": "hh-sol-artifact-1",
  "contractName": "FundingContracts",
  "sourceName": "contracts/FundingContracts.sol",
  "abi": [
    {
      "inputs": [
        {
          "internalType": "address",
          "name": "initialOwner",
          "type": "address"
        },
        {
          "internalType": "address",
          "name": "_farmerRegistry",
          "type": "address"
        },
        {
          "internalType": "address",
          "name": "_batchRegistry",
          "type": "address"
        }
      ],
      "stateMutability": "nonpayable",
      "type": "constructor"
    },
    {
      "inputs": [
        {
          "internalType": "address",
          "name": "owner",
          "type": "address"
        }
      ],
      "name": "OwnableInvalidOwner",
      "type": "error"
    },
    {
      "inputs": [
        {
          "internalType": "address",
          "name": "account",
          "type": "address"
        }
      ],
      "name": "OwnableUnauthorizedAccount",
      "type": "error"
    },
    {
      "inputs": [],
      "name": "ReentrancyGuardReentrantCall",
      "type": "error"
    },
    {
      "anonymous": false,
      "inputs": [
        {
          "indexed": true,
          "internalType": "uint256",
          "name": "id",
          "type": "uint256"
        },
        {
          "indexed": true,
          "internalType": "address",
          "name": "investor",
          "type": "address"
        },
        {
          "indexed": false,
          "internalType": "uint256",
          "name": "amount",
          "type": "uint256"
        }
      ],
      "name": "FarmerFunded",
      "type": "event"
    },
    {
      "anonymous": false,
      "inputs": [
        {
          "indexed": true,
          "internalType": "uint256",
          "name": "id",
          "type": "uint256"
        },
        {
          "indexed": true,
          "internalType": "address",
          "name": "farmer",
          "type": "address"
        },
        {
          "indexed": false,
          "internalType": "string",
          "name": "cropType",
          "type": "string"
        },
        {
          "indexed": false,
          "internalType": "uint256",
          "name": "target",
          "type": "uint256"
        }
      ],
      "name": "FundingRequestCreated",
      "type": "event"
    },
    {
      "anonymous": false,
      "inputs": [
        {
          "indexed": true,
          "internalType": "uint256",
          "name": "id",
          "type": "uint256"
        },
        {
          "indexed": false,
          "internalType": "uint256",
          "name": "totalSale",
          "type": "uint256"
        },
        {
          "indexed": false,
          "internalType": "uint256",
          "name": "investorShare",
          "type": "uint256"
        }
      ],
      "name": "HarvestSettled",
      "type": "event"
    },
    {
      "anonymous": false,
      "inputs": [
        {
          "indexed": true,
          "internalType": "uint256",
          "name": "id",
          "type": "uint256"
        },
        {
          "indexed": false,
          "internalType": "address",
          "name": "investor",
          "type": "address"
        },
        {
          "indexed": false,
          "internalType": "uint256",
          "name": "amount",
          "type": "uint256"
        }
      ],
      "name": "InsuranceClaimPaid",
      "type": "event"
    },
    {
      "anonymous": false,
      "inputs": [
        {
          "indexed": true,
          "internalType": "address",
          "name": "previousOwner",
          "type": "address"
        },
        {
          "indexed": true,
          "internalType": "address",
          "name": "newOwner",
          "type": "address"
        }
      ],
      "name": "OwnershipTransferred",
      "type": "event"
    },
    {
      "inputs": [],
      "name": "batchRegistry",
      "outputs": [
        {
          "internalType": "contract BatchRegistry",
          "name": "",
          "type": "address"
        }
      ],
      "stateMutability": "view",
      "type": "function"
    },
    {
      "inputs": [
        {
          "internalType": "uint256",
          "name": "",
          "type": "uint256"
        },
        {
          "internalType": "address",
          "name": "",
          "type": "address"
        }
      ],
      "name": "contributions",
      "outputs": [
        {
          "internalType": "uint256",
          "name": "",
          "type": "uint256"
        }
      ],
      "stateMutability": "view",
      "type": "function"
    },
    {
      "inputs": [
        {
          "internalType": "string",
          "name": "cropType",
          "type": "string"
        },
        {
          "internalType": "uint256",
          "name": "landAreaCents",
          "type": "uint256"
        },
        {
          "internalType": "uint256",
          "name": "inputRequiredWei",
          "type": "uint256"
        },
        {
          "internalType": "uint256",
          "name": "estimatedYieldKg",
          "type": "uint256"
        },
        {
          "internalType": "uint8",
          "name": "equityPercent",
          "type": "uint8"
        }
      ],
      "name": "createFundingRequest",
      "outputs": [
        {
          "internalType": "uint256",
          "name": "requestId",
          "type": "uint256"
        }
      ],
      "stateMutability": "nonpayable",
      "type": "function"
    },
    {
      "inputs": [],
      "name": "farmerRegistry",
      "outputs": [
        {
          "internalType": "contract FarmerRegistry",
          "name": "",
          "type": "address"
        }
      ],
      "stateMutability": "view",
      "type": "function"
    },
    {
      "inputs": [
        {
          "internalType": "address",
          "name": "",
          "type": "address"
        },
        {
          "internalType": "uint256",
          "name": "",
          "type": "uint256"
        }
      ],
      "name": "farmerRequests",
      "outputs": [
        {
          "internalType": "uint256",
          "name": "",
          "type": "uint256"
        }
      ],
      "stateMutability": "view",
      "type": "function"
    },
    {
      "inputs": [
        {
          "internalType": "uint256",
          "name": "requestId",
          "type": "uint256"
        }
      ],
      "name": "fundFarmer",
      "outputs": [],
      "stateMutability": "payable",
      "type": "function"
    },
    {
      "inputs": [],
      "name": "getActiveFundingRequests",
      "outputs": [
        {
          "internalType": "uint256[]",
          "name": "",
          "type": "uint256[]"
        }
      ],
      "stateMutability": "view",
      "type": "function"
    },
    {
      "inputs": [
        {
          "internalType": "uint256",
          "name": "requestId",
          "type": "uint256"
        },
        {
          "internalType": "address",
          "name": "investor",
          "type": "address"
        }
      ],
      "name": "getContribution",
      "outputs": [
        {
          "internalType": "uint256",
          "name": "",
          "type": "uint256"
        }
      ],
      "stateMutability": "view",
      "type": "function"
    },
    {
      "inputs": [
        {
          "internalType": "address",
          "name": "farmer",
          "type": "address"
        }
      ],
      "name": "getFarmerReliabilityScore",
      "outputs": [
        {
          "internalType": "uint256",
          "name": "score",
          "type": "uint256"
        }
      ],
      "stateMutability": "view",
      "type": "function"
    },
    {
      "inputs": [
        {
          "internalType": "uint256",
          "name": "id",
          "type": "uint256"
        }
      ],
      "name": "getRequest",
      "outputs": [
        {
          "components": [
            {
              "internalType": "uint256",
              "name": "id",
              "type": "uint256"
            },
            {
              "internalType": "address",
              "name": "farmer",
              "type": "address"
            },
            {
              "internalType": "string",
              "name": "cropType",
              "type": "string"
            },
            {
              "internalType": "uint256",
              "name": "landAreaCents",
              "type": "uint256"
            },
            {
              "internalType": "uint256",
              "name": "inputRequiredWei",
              "type": "uint256"
            },
            {
              "internalType": "uint256",
              "name": "estimatedYieldKg",
              "type": "uint256"
            },
            {
              "internalType": "uint8",
              "name": "equityPercent",
              "type": "uint8"
            },
            {
              "internalType": "uint256",
              "name": "totalFundedWei",
              "type": "uint256"
            },
            {
              "internalType": "enum FundingContracts.FundingStatus",
              "name": "status",
              "type": "uint8"
            },
            {
              "internalType": "uint256",
              "name": "season",
              "type": "uint256"
            },
            {
              "internalType": "uint256",
              "name": "createdAt",
              "type": "uint256"
            },
            {
              "internalType": "uint256",
              "name": "fundingDeadline",
              "type": "uint256"
            },
            {
              "internalType": "address[]",
              "name": "investors",
              "type": "address[]"
            }
          ],
          "internalType": "struct FundingContracts.FundingRequest",
          "name": "",
          "type": "tuple"
        }
      ],
      "stateMutability": "view",
      "type": "function"
    },
    {
      "inputs": [
        {
          "internalType": "address",
          "name": "",
          "type": "address"
        },
        {
          "internalType": "uint256",
          "name": "",
          "type": "uint256"
        }
      ],
      "name": "investorPortfolio",
      "outputs": [
        {
          "internalType": "uint256",
          "name": "",
          "type": "uint256"
        }
      ],
      "stateMutability": "view",
      "type": "function"
    },
    {
      "inputs": [],
      "name": "owner",
      "outputs": [
        {
          "internalType": "address",
          "name": "",
          "type": "address"
        }
      ],
      "stateMutability": "view",
      "type": "function"
    },
    {
      "inputs": [],
      "name": "renounceOwnership",
      "outputs": [],
      "stateMutability": "nonpayable",
      "type": "function"
    },
    {
      "inputs": [],
      "name": "requestCounter",
      "outputs": [
        {
          "internalType": "uint256",
          "name": "",
          "type": "uint256"
        }
      ],
      "stateMutability": "view",
      "type": "function"
    },
    {
      "inputs": [
        {
          "internalType": "uint256",
          "name": "id",
          "type": "uint256"
        }
      ],
      "name": "requests",
      "outputs": [
        {
          "components": [
            {
              "internalType": "uint256",
              "name": "id",
              "type": "uint256"
            },
            {
              "internalType": "address",
              "name": "farmer",
              "type": "address"
            },
            {
              "internalType": "string",
              "name": "cropType",
              "type": "string"
            },
            {
              "internalType": "uint256",
              "name": "landAreaCents",
              "type": "uint256"
            },
            {
              "internalType": "uint256",
              "name": "inputRequiredWei",
              "type": "uint256"
            },
            {
              "internalType": "uint256",
              "name": "estimatedYieldKg",
              "type": "uint256"
            },
            {
              "internalType": "uint8",
              "name": "equityPercent",
              "type": "uint8"
            },
            {
              "internalType": "uint256",
              "name": "totalFundedWei",
              "type": "uint256"
            },
            {
              "internalType": "enum FundingContracts.FundingStatus",
              "name": "status",
              "type": "uint8"
            },
            {
              "internalType": "uint256",
              "name": "season",
              "type": "uint256"
            },
            {
              "internalType": "uint256",
              "name": "createdAt",
              "type": "uint256"
            },
            {
              "internalType": "uint256",
              "name": "fundingDeadline",
              "type": "uint256"
            },
            {
              "internalType": "address[]",
              "name": "investors",
              "type": "address[]"
            }
          ],
          "internalType": "struct FundingContracts.FundingRequest",
          "name": "",
          "type": "tuple"
        }
      ],
      "stateMutability": "view",
      "type": "function"
    },
    {
      "inputs": [
        {
          "internalType": "uint256",
          "name": "requestId",
          "type": "uint256"
        },
        {
          "internalType": "uint256",
          "name": "actualSaleAmountWei",
          "type": "uint256"
        }
      ],
      "name": "settleHarvest",
      "outputs": [],
      "stateMutability": "payable",
      "type": "function"
    },
    {
      "inputs": [
        {
          "internalType": "address",
          "name": "newOwner",
          "type": "address"
        }
      ],
      "name": "transferOwnership",
      "outputs": [],
      "stateMutability": "nonpayable",
      "type": "function"
    }
  ],
  "bytecode": "0x60806040523480156200001157600080fd5b5060405162001d3038038062001d30833981016040819052620000349162000134565b826001600160a01b0381166200006457604051631e4fbdf760e01b81526000600482015260240160405180910390fd5b6200006f81620000c7565b5060017f9b779b17422d0df92223018b32b4d1fa46e071723d6817e2486d003becc55f0055600680546001600160a01b039384166001600160a01b03199182161790915560078054929093169116179055506200017e565b600080546001600160a01b038381166001600160a01b0319831681178455604051919092169283917f8be0079c531659141344cd1fd0a4f28419497f9722a3daafe3b4186f6b6457e09190a35050565b80516001600160a01b03811681146200012f57600080fd5b919050565b6000806000606084860312156200014a57600080fd5b620001558462000117565b9250620001656020850162000117565b9150620001756040850162000117565b90509250925092565b611ba2806200018e6000396000f3fe6080604052600436106100fe5760003560e01c8063973a814e11610095578063b79b4db711610064578063b79b4db7146102c0578063c58343ef146101fd578063e081dbf9146102d3578063f2fde38b146102f3578063fb9a60f11461031357600080fd5b8063973a814e14610248578063aa40b77b1461025e578063b194c6721461027e578063b4d0eef91461029e57600080fd5b80633d891f59116100d15780633d891f59146101ae578063715018a6146101e657806381d12c58146101fd5780638da5cb5b1461022a57600080fd5b80630659b139146101035780630da809801461013657806320478b6a1461016e5780633130e2861461018e575b600080fd5b34801561010f57600080fd5b5061012361011e3660046112f6565b610326565b6040519081526020015b60405180910390f35b34801561014257600080fd5b50600654610156906001600160a01b031681565b6040516001600160a01b03909116815260200161012d565b34801561017a57600080fd5b506101236101893660046113b9565b61064b565b34801561019a57600080fd5b506101236101a93660046113b9565b61067c565b3480156101ba57600080fd5b506101236101c93660046113e5565b600260209081526000928352604080842090915290825290205481565b3480156101f257600080fd5b506101fb610698565b005b34801561020957600080fd5b5061021d610218366004611415565b6106ac565b60405161012d91906114fb565b34801561023657600080fd5b506000546001600160a01b0316610156565b34801561025457600080fd5b5061012360055481565b34801561026a57600080fd5b50600754610156906001600160a01b031681565b34801561028a57600080fd5b506101236102993660046115e0565b61086f565b3480156102aa57600080fd5b506102b36108f1565b60405161012d9190611604565b6101fb6102ce366004611415565b610a13565b3480156102df57600080fd5b506101236102ee3660046113e5565b610ce3565b3480156102ff57600080fd5b506101fb61030e3660046115e0565b610d0d565b6101fb610321366004611648565b610d48565b6006546040516341e2d85560e11b81523360048201526000916001600160a01b0316906383c5b0aa90602401602060405180830381865afa15801561036f573d6000803e3d6000fd5b505050506040513d601f19601f82011682018060405250810190610393919061167a565b6103e45760405162461bcd60e51b815260206004820152601760248201527f4e6f7420612072656769737465726564206661726d657200000000000000000060448201526064015b60405180910390fd5b601e8260ff1611156104305760405162461bcd60e51b815260206004820152601560248201527404571756974792070657263656e74206d617820333605c1b60448201526064016103db565b600084116104805760405162461bcd60e51b815260206004820152601a60248201527f496e707574207265717569726564206d757374206265203e203000000000000060448201526064016103db565b336000908152600360205260408120905b815481101561053a576000600160008484815481106104b2576104b2611695565b6000918252602080832090910154835282019290925260400190206008015460ff1660048111156104e5576104e561147e565b036105325760405162461bcd60e51b815260206004820152601c60248201527f416c7265616479206861766520616e206f70656e20726571756573740000000060448201526064016103db565b600101610491565b506005805490600061054b836116c1565b9091555050600554600081815260016020819052604090912082815590810180546001600160a01b031916331790559092506002810161058b8982611765565b5060038101879055600481018690556005810185905560068101805460ff1990811660ff87161790915560088201805490911690554260098201819055600a82018190556105dc9062278d00611825565b600b820155336000818152600360209081526040808320805460018101825590845291909220018590555184907f4dd5671f4f86241b47de384d75ef8b654690772462463ccc621dc498c02eeb9490610638908c908b90611838565b60405180910390a3505095945050505050565b6004602052816000526040600020818154811061066757600080fd5b90600052602060002001600091509150505481565b6003602052816000526040600020818154811061066757600080fd5b6106a06110f0565b6106aa600061111d565b565b6106b46111b9565b60008281526001602081815260409283902083516101a08101855281548152928101546001600160a01b03169183019190915260028101805492939192918401916106fe906116da565b80601f016020809104026020016040519081016040528092919081815260200182805461072a906116da565b80156107775780601f1061074c57610100808354040283529160200191610777565b820191906000526020600020905b81548152906001019060200180831161075a57829003601f168201915b505050918352505060038201546020820152600480830154604083015260058301546060830152600683015460ff9081166080840152600784015460a0840152600884015460c09093019216908111156107d3576107d361147e565b60048111156107e4576107e461147e565b815260200160098201548152602001600a8201548152602001600b8201548152602001600c820180548060200260200160405190810160405280929190818152602001828054801561085f57602002820191906000526020600020905b81546001600160a01b03168152600190910190602001808311610841575b5050505050815250509050919050565b6006546040516373b04e0b60e11b81526001600160a01b038381166004830152600092839291169063e7609c1690602401600060405180830381865afa1580156108bd573d6000803e3d6000fd5b505050506040513d6000823e601f3d908101601f191682016040526108e5919081019061195c565b6101a001519392505050565b6060600060015b600554811161094c5760008181526001602052604081206008015460ff1660048111156109275761092761147e565b0361093a5781610936816116c1565b9250505b80610944816116c1565b9150506108f8565b5060008167ffffffffffffffff8111156109685761096861123e565b604051908082528060200260200182016040528015610991578160200160208202803683370190505b509050600060015b6005548111610a0a5760008181526001602052604081206008015460ff1660048111156109c8576109c861147e565b036109f8578083836109d9816116c1565b9450815181106109eb576109eb611695565b6020026020010181815250505b80610a02816116c1565b915050610999565b50909392505050565b610a1b61116d565b600081815260016020526040812090600882015460ff166004811115610a4357610a4361147e565b14610a835760405162461bcd60e51b815260206004820152601060248201526f2932b8bab2b9ba103737ba1037b832b760811b60448201526064016103db565b80600b0154421115610ad75760405162461bcd60e51b815260206004820152601760248201527f46756e64696e6720646561646c696e652070617373656400000000000000000060448201526064016103db565b60003411610b175760405162461bcd60e51b815260206004820152600d60248201526c09aeae6e840e6cadcc8408aa89609b1b60448201526064016103db565b60008281526002602090815260408083203384529091528120549003610b7e57600c81018054600181810183556000928352602080842090920180546001600160a01b03191633908117909155835260048252604083208054918201815583529120018290555b600082815260026020908152604080832033845290915281208054349290610ba7908490611825565b9250508190555034816007016000828254610bc29190611825565b9091555050604051348152339083907fd72fa25b5516ae79307aeed5190b9ada88831bb6b9805199ef0848d9c73226c59060200160405180910390a38060040154816007015410610cc85760088101805460ff1916600190811790915581015460078201546040516000926001600160a01b031691908381818185875af1925050503d8060008114610c70576040519150601f19603f3d011682016040523d82523d6000602084013e610c75565b606091505b5050905080610cc65760405162461bcd60e51b815260206004820152601960248201527f5472616e7366657220746f206661726d6572206661696c65640000000000000060448201526064016103db565b505b50610ce06001600080516020611b4d83398151915255565b50565b60008281526002602090815260408083206001600160a01b03851684529091529020545b92915050565b610d156110f0565b6001600160a01b038116610d3f57604051631e4fbdf760e01b8152600060048201526024016103db565b610ce08161111d565b610d5061116d565b6000828152600160208190526040909120908101546001600160a01b03163314610db55760405162461bcd60e51b81526020600482015260166024820152754f6e6c79206661726d65722063616e20736574746c6560501b60448201526064016103db565b6001600882015460ff166004811115610dd057610dd061147e565b1480610df457506002600882015460ff166004811115610df257610df261147e565b145b610e385760405162461bcd60e51b81526020600482015260156024820152744e6f7420696e2066756e6461626c6520737461746560581b60448201526064016103db565b813414610e875760405162461bcd60e51b815260206004820152601b60248201527f4d7573742073656e642065786163742073616c6520616d6f756e74000000000060448201526064016103db565b6000805b600c830154811015610fd557600083600c018281548110610eae57610eae611695565b60009182526020808320909101548883526002825260408084206001600160a01b03909216808552919092529082205460078701549193509190610ef3906064611b00565b60068701548890610f079060ff1685611b00565b610f119190611b00565b610f1b9190611b17565b9050610f278186611825565b94506000836001600160a01b03168260405160006040518083038185875af1925050503d8060008114610f76576040519150601f19603f3d011682016040523d82523d6000602084013e610f7b565b606091505b5050905080610fc55760405162461bcd60e51b8152602060048201526016602482015275125b9d995cdd1bdc881c185e5bdd5d0819985a5b195960521b60448201526064016103db565b505060019092019150610e8b9050565b5060088201805460ff19166003179055604080518481526020810183905285917f214654f2617f0eeea4fce5128946037564ae541cba0b74db0cab0684e3caed9e910160405180910390a2600061102c8285611b39565b905080156110d25760018301546040516000916001600160a01b03169083908381818185875af1925050503d8060008114611083576040519150601f19603f3d011682016040523d82523d6000602084013e611088565b606091505b50509050806110d05760405162461bcd60e51b815260206004820152601460248201527311985c9b595c881c99599d5b990819985a5b195960621b60448201526064016103db565b505b5050506110ec6001600080516020611b4d83398151915255565b5050565b6000546001600160a01b031633146106aa5760405163118cdaa760e01b81523360048201526024016103db565b600080546001600160a01b038381166001600160a01b0319831681178455604051919092169283917f8be0079c531659141344cd1fd0a4f28419497f9722a3daafe3b4186f6b6457e09190a35050565b611175611189565b6002600080516020611b4d83398151915255565b600080516020611b4d833981519152546002036106aa57604051633ee5aeb560e01b815260040160405180910390fd5b604051806101a001604052806000815260200160006001600160a01b0316815260200160608152602001600081526020016000815260200160008152602001600060ff168152602001600081526020016000600481111561121c5761121c61147e565b8152602001600081526020016000815260200160008152602001606081525090565b634e487b7160e01b600052604160045260246000fd5b604051610220810167ffffffffffffffff811182821017156112785761127861123e565b60405290565b604051601f8201601f1916810167ffffffffffffffff811182821017156112a7576112a761123e565b604052919050565b600067ffffffffffffffff8211156112c9576112c961123e565b50601f01601f191660200190565b60ff81168114610ce057600080fd5b80356112f1816112d7565b919050565b600080600080600060a0868803121561130e57600080fd5b853567ffffffffffffffff81111561132557600080fd5b8601601f8101881361133657600080fd5b8035611349611344826112af565b61127e565b81815289602083850101111561135e57600080fd5b81602084016020830137600060208383010152809750505050602086013593506040860135925060608601359150611398608087016112e6565b90509295509295909350565b6001600160a01b0381168114610ce057600080fd5b600080604083850312156113cc57600080fd5b82356113d7816113a4565b946020939093013593505050565b600080604083850312156113f857600080fd5b82359150602083013561140a816113a4565b809150509250929050565b60006020828403121561142757600080fd5b5035919050565b60005b83811015611449578181015183820152602001611431565b50506000910152565b6000815180845261146a81602086016020860161142e565b601f01601f19169290920160200192915050565b634e487b7160e01b600052602160045260246000fd5b600581106114b257634e487b7160e01b600052602160045260246000fd5b9052565b60008151808452602080850194506020840160005b838110156114f05781516001600160a01b0316875295820195908201906001016114cb565b509495945050505050565b60208152815160208201526000602083015161152260408401826001600160a01b03169052565b5060408301516101a080606085015261153f6101c0850183611452565b915060608501516080850152608085015160a085015260a085015160c085015260c085015161157360e086018260ff169052565b5060e08501516101008581019190915285015161012061159581870183611494565b860151610140868101919091528601516101608087019190915286015161018080870191909152860151858403601f19018387015290506115d683826114b6565b9695505050505050565b6000602082840312156115f257600080fd5b81356115fd816113a4565b9392505050565b6020808252825182820181905260009190848201906040850190845b8181101561163c57835183529284019291840191600101611620565b50909695505050505050565b6000806040838503121561165b57600080fd5b50508035926020909101359150565b805180151581146112f157600080fd5b60006020828403121561168c57600080fd5b6115fd8261166a565b634e487b7160e01b600052603260045260246000fd5b634e487b7160e01b600052601160045260246000fd5b6000600182016116d3576116d36116ab565b5060010190565b600181811c908216806116ee57607f821691505b60208210810361170e57634e487b7160e01b600052602260045260246000fd5b50919050565b601f821115611760576000816000526020600020601f850160051c8101602086101561173d5750805b601f850160051c820191505b8181101561175c57828155600101611749565b5050505b505050565b815167ffffffffffffffff81111561177f5761177f61123e565b6117938161178d84546116da565b84611714565b602080601f8311600181146117c857600084156117b05750858301515b600019600386901b1c1916600185901b17855561175c565b600085815260208120601f198616915b828110156117f7578886015182559484019460019091019084016117d8565b50858210156118155787850151600019600388901b60f8161c191681555b5050505050600190811b01905550565b80820180821115610d0757610d076116ab565b60408152600061184b6040830185611452565b90508260208301529392505050565b80516112f1816113a4565b600082601f83011261187657600080fd5b8151611884611344826112af565b81815284602083860101111561189957600080fd5b6118aa82602083016020870161142e565b949350505050565b80516112f1816112d7565b600082601f8301126118ce57600080fd5b8151602067ffffffffffffffff808311156118eb576118eb61123e565b8260051b6118fa83820161127e565b938452858101830193838101908886111561191457600080fd5b84880192505b85831015611950578251848111156119325760008081fd5b6119408a87838c0101611865565b835250918401919084019061191a565b98975050505050505050565b60006020828403121561196e57600080fd5b815167ffffffffffffffff8082111561198657600080fd5b90830190610220828603121561199b57600080fd5b6119a3611254565b825181526119b36020840161185a565b60208201526040830151828111156119ca57600080fd5b6119d687828601611865565b6040830152506060830151828111156119ee57600080fd5b6119fa87828601611865565b606083015250608083015182811115611a1257600080fd5b611a1e87828601611865565b60808301525060a083015182811115611a3657600080fd5b611a4287828601611865565b60a083015250611a5460c084016118b2565b60c082015260e083015160e08201526101008084015183811115611a7757600080fd5b611a83888287016118bd565b8284015250506101209150611a9982840161166a565b828201526101409150611aad82840161166a565b91810191909152610160828101519082015261018080830151908201526101a080830151908201526101c080830151908201526101e0808301519082015261020091820151918101919091529392505050565b8082028115828204841417610d0757610d076116ab565b600082611b3457634e487b7160e01b600052601260045260246000fd5b500490565b81810381811115610d0757610d076116ab56fe9b779b17422d0df92223018b32b4d1fa46e071723d6817e2486d003becc55f00a2646970667358221220fc6ac907653d63c5ace5ddafab6d856b6f8741d162e6b009e6a899efc9137cd764736f6c63430008180033",
  "linkReferences": {},
  "deployedLinkReferences": {}
}