{
  "_format": "hh-sol-artifact-1",
  "contractName": "ProduceBatch",
  "sourceName": "contracts/ProduceBatch.sol",
  "abi": [
    {
      "inputs": [
        {
          "internalType": "address",
          "name": "_registryAddress",
          "type": "address"
        }
      ],
      "stateMutability": "nonpayable",
      "type": "constructor"
    },
    {
      "inputs": [
        {
          "internalType": "address",
          "name": "sender",
          "type": "address"
        },
        {
          "internalType": "uint256",
          "name": "tokenId",
          "type": "uint256"
        },
        {
          "internalType": "address",
          "name": "owner",
          "type": "address"
        }
      ],
      "name": "ERC721IncorrectOwner",
      "type": "error"
    },
    {
      "inputs": [
        {
          "internalType": "address",
          "name": "operator",
          "type": "address"
        },
        {
          "internalType": "uint256",
          "name": "tokenId",
          "type": "uint256"
        }
      ],
      "name": "ERC721InsufficientApproval",
      "type": "error"
    },
    {
      "inputs": [
        {
          "internalType": "address",
          "name": "approver",
          "type": "address"
        }
      ],
      "name": "ERC721InvalidApprover",
      "type": "error"
    },
    {
      "inputs": [
        {
          "internalType": "address",
          "name": "operator",
          "type": "address"
        }
      ],
      "name": "ERC721InvalidOperator",
      "type": "error"
    },
    {
      "inputs": [
        {
          "internalType": "address",
          "name": "owner",
          "type": "address"
        }
      ],
      "name": "ERC721InvalidOwner",
      "type": "error"
    },
    {
      "inputs": [
        {
          "internalType": "address",
          "name": "receiver",
          "type": "address"
        }
      ],
      "name": "ERC721InvalidReceiver",
      "type": "error"
    },
    {
      "inputs": [
        {
          "internalType": "address",
          "name": "sender",
          "type": "address"
        }
      ],
      "name": "ERC721InvalidSender",
      "type": "error"
    },
    {
      "inputs": [
        {
          "internalType": "uint256",
          "name": "tokenId",
          "type": "uint256"
        }
      ],
      "name": "ERC721NonexistentToken",
      "type": "error"
    },
    {
      "anonymous": false,
      "inputs": [
        {
          "indexed": true,
          "internalType": "address",
          "name": "owner",
          "type": "address"
        },
        {
          "indexed": true,
          "internalType": "address",
          "name": "approved",
          "type": "address"
        },
        {
          "indexed": true,
          "internalType": "uint256",
          "name": "tokenId",
          "type": "uint256"
        }
      ],
      "name": "Approval",
      "type": "event"
    },
    {
      "anonymous": false,
      "inputs": [
        {
          "indexed": true,
          "internalType": "address",
          "name": "owner",
          "type": "address"
        },
        {
          "indexed": true,
          "internalType": "address",
          "name": "operator",
          "type": "address"
        },
        {
          "indexed": false,
          "internalType": "bool",
          "name": "approved",
          "type": "bool"
        }
      ],
      "name": "ApprovalForAll",
      "type": "event"
    },
    {
      "anonymous": false,
      "inputs": [
        {
          "indexed": true,
          "internalType": "uint256",
          "name": "batchId",
          "type": "uint256"
        },
        {
          "indexed": true,
          "internalType": "address",
          "name": "initialOwner",
          "type": "address"
        }
      ],
      "name": "BatchMinted",
      "type": "event"
    },
    {
      "anonymous": false,
      "inputs": [
        {
          "indexed": true,
          "internalType": "uint256",
          "name": "batchId",
          "type": "uint256"
        },
        {
          "indexed": true,
          "internalType": "address",
          "name": "retailer",
          "type": "address"
        }
      ],
      "name": "BatchSold",
      "type": "event"
    },
    {
      "anonymous": false,
      "inputs": [
        {
          "indexed": true,
          "internalType": "uint256",
          "name": "batchId",
          "type": "uint256"
        },
        {
          "indexed": true,
          "internalType": "address",
          "name": "newOwner",
          "type": "address"
        },
        {
          "indexed": false,
          "internalType": "uint256",
          "name": "timestamp",
          "type": "uint256"
        }
      ],
      "name": "CustodyAccepted",
      "type": "event"
    },
    {
      "anonymous": false,
      "inputs": [
        {
          "indexed": true,
          "internalType": "uint256",
          "name": "batchId",
          "type": "uint256"
        },
        {
          "indexed": true,
          "internalType": "address",
          "name": "sender",
          "type": "address"
        },
        {
          "indexed": true,
          "internalType": "address",
          "name": "receiver",
          "type": "address"
        }
      ],
      "name": "CustodyTransferInitiated",
      "type": "event"
    },
    {
      "anonymous": false,
      "inputs": [
        {
          "indexed": true,
          "internalType": "address",
          "name": "from",
          "type": "address"
        },
        {
          "indexed": true,
          "internalType": "address",
          "name": "to",
          "type": "address"
        },
        {
          "indexed": true,
          "internalType": "uint256",
          "name": "tokenId",
          "type": "uint256"
        }
      ],
      "name": "Transfer",
      "type": "event"
    },
    {
      "inputs": [
        {
          "internalType": "uint256",
          "name": "batchId",
          "type": "uint256"
        },
        {
          "internalType": "bytes32",
          "name": "arrivalFRS",
          "type": "bytes32"
        }
      ],
      "name": "acceptCustody",
      "outputs": [],
      "stateMutability": "nonpayable",
      "type": "function"
    },
    {
      "inputs": [
        {
          "internalType": "address",
          "name": "to",
          "type": "address"
        },
        {
          "internalType": "uint256",
          "name": "tokenId",
          "type": "uint256"
        }
      ],
      "name": "approve",
      "outputs": [],
      "stateMutability": "nonpayable",
      "type": "function"
    },
    {
      "inputs": [
        {
          "internalType": "address",
          "name": "owner",
          "type": "address"
        }
      ],
      "name": "balanceOf",
      "outputs": [
        {
          "internalType": "uint256",
          "name": "",
          "type": "uint256"
        }
      ],
      "stateMutability": "view",
      "type": "function"
    },
    {
      "inputs": [
        {
          "internalType": "uint256",
          "name": "",
          "type": "uint256"
        }
      ],
      "name": "batchStates",
      "outputs": [
        {
          "internalType": "enum ProduceBatch.BatchState",
          "name": "",
          "type": "uint8"
        }
      ],
      "stateMutability": "view",
      "type": "function"
    },
    {
      "inputs": [
        {
          "internalType": "uint256",
          "name": "",
          "type": "uint256"
        }
      ],
      "name": "batches",
      "outputs": [
        {
          "internalType": "uint256",
          "name": "batchId",
          "type": "uint256"
        },
        {
          "internalType": "address",
          "name": "currentOwner",
          "type": "address"
        },
        {
          "internalType": "uint256",
          "name": "wOrigin",
          "type": "uint256"
        },
        {
          "internalType": "uint256",
          "name": "nItems",
          "type": "uint256"
        },
        {
          "internalType": "string",
          "name": "produceType",
          "type": "string"
        },
        {
          "internalType": "uint256",
          "name": "harvestDate",
          "type": "uint256"
        }
      ],
      "stateMutability": "view",
      "type": "function"
    },
    {
      "inputs": [
        {
          "internalType": "uint256",
          "name": "tokenId",
          "type": "uint256"
        }
      ],
      "name": "getApproved",
      "outputs": [
        {
          "internalType": "address",
          "name": "",
          "type": "address"
        }
      ],
      "stateMutability": "view",
      "type": "function"
    },
    {
      "inputs": [
        {
          "internalType": "uint256",
          "name": "batchId",
          "type": "uint256"
        }
      ],
      "name": "getBatchTransitHistory",
      "outputs": [
        {
          "internalType": "bytes32[]",
          "name": "",
          "type": "bytes32[]"
        }
      ],
      "stateMutability": "view",
      "type": "function"
    },
    {
      "inputs": [
        {
          "internalType": "address",
          "name": "owner",
          "type": "address"
        },
        {
          "internalType": "address",
          "name": "operator",
          "type": "address"
        }
      ],
      "name": "isApprovedForAll",
      "outputs": [
        {
          "internalType": "bool",
          "name": "",
          "type": "bool"
        }
      ],
      "stateMutability": "view",
      "type": "function"
    },
    {
      "inputs": [
        {
          "internalType": "uint256",
          "name": "batchId",
          "type": "uint256"
        }
      ],
      "name": "markAsSold",
      "outputs": [],
      "stateMutability": "nonpayable",
      "type": "function"
    },
    {
      "inputs": [
        {
          "internalType": "uint256",
          "name": "_wOrigin",
          "type": "uint256"
        },
        {
          "internalType": "uint256",
          "name": "_nItems",
          "type": "uint256"
        },
        {
          "internalType": "string",
          "name": "_produceType",
          "type": "string"
        }
      ],
      "name": "mintBatch",
      "outputs": [],
      "stateMutability": "nonpayable",
      "type": "function"
    },
    {
      "inputs": [],
      "name": "name",
      "outputs": [
        {
          "internalType": "string",
          "name": "",
          "type": "string"
        }
      ],
      "stateMutability": "view",
      "type": "function"
    },
    {
      "inputs": [
        {
          "internalType": "uint256",
          "name": "tokenId",
          "type": "uint256"
        }
      ],
      "name": "ownerOf",
      "outputs": [
        {
          "internalType": "address",
          "name": "",
          "type": "address"
        }
      ],
      "stateMutability": "view",
      "type": "function"
    },
    {
      "inputs": [
        {
          "internalType": "uint256",
          "name": "",
          "type": "uint256"
        }
      ],
      "name": "pendingReceivers",
      "outputs": [
        {
          "internalType": "address",
          "name": "",
          "type": "address"
        }
      ],
      "stateMutability": "view",
      "type": "function"
    },
    {
      "inputs": [],
      "name": "registry",
      "outputs": [
        {
          "internalType": "contract FarmChainRegistry",
          "name": "",
          "type": "address"
        }
      ],
      "stateMutability": "view",
      "type": "function"
    },
    {
      "inputs": [
        {
          "internalType": "address",
          "name": "from",
          "type": "address"
        },
        {
          "internalType": "address",
          "name": "to",
          "type": "address"
        },
        {
          "internalType": "uint256",
          "name": "tokenId",
          "type": "uint256"
        }
      ],
      "name": "safeTransferFrom",
      "outputs": [],
      "stateMutability": "nonpayable",
      "type": "function"
    },
    {
      "inputs": [
        {
          "internalType": "address",
          "name": "",
          "type": "address"
        },
        {
          "internalType": "address",
          "name": "",
          "type": "address"
        },
        {
          "internalType": "uint256",
          "name": "",
          "type": "uint256"
        },
        {
          "internalType": "bytes",
          "name": "",
          "type": "bytes"
        }
      ],
      "name": "safeTransferFrom",
      "outputs": [],
      "stateMutability": "nonpayable",
      "type": "function"
    },
    {
      "inputs": [
        {
          "internalType": "address",
          "name": "operator",
          "type": "address"
        },
        {
          "internalType": "bool",
          "name": "approved",
          "type": "bool"
        }
      ],
      "name": "setApprovalForAll",
      "outputs": [],
      "stateMutability": "nonpayable",
      "type": "function"
    },
    {
      "inputs": [
        {
          "internalType": "bytes4",
          "name": "interfaceId",
          "type": "bytes4"
        }
      ],
      "name": "supportsInterface",
      "outputs": [
        {
          "internalType": "bool",
          "name": "",
          "type": "bool"
        }
      ],
      "stateMutability": "view",
      "type": "function"
    },
    {
      "inputs": [],
      "name": "symbol",
      "outputs": [
        {
          "internalType": "string",
          "name": "",
          "type": "string"
        }
      ],
      "stateMutability": "view",
      "type": "function"
    },
    {
      "inputs": [
        {
          "internalType": "uint256",
          "name": "tokenId",
          "type": "uint256"
        }
      ],
      "name": "tokenURI",
      "outputs": [
        {
          "internalType": "string",
          "name": "",
          "type": "string"
        }
      ],
      "stateMutability": "view",
      "type": "function"
    },
    {
      "inputs": [],
      "name": "totalBatches",
      "outputs": [
        {
          "internalType": "uint256",
          "name": "",
          "type": "uint256"
        }
      ],
      "stateMutability": "view",
      "type": "function"
    },
    {
      "inputs": [
        {
          "internalType": "uint256",
          "name": "batchId",
          "type": "uint256"
        },
        {
          "internalType": "address",
          "name": "receiverAddress",
          "type": "address"
        }
      ],
      "name": "transferCustody",
      "outputs": [],
      "stateMutability": "nonpayable",
      "type": "function"
    },
    {
      "inputs": [
        {
          "internalType": "address",
          "name": "",
          "type": "address"
        },
        {
          "internalType": "address",
          "name": "",
          "type": "address"
        },
        {
          "internalType": "uint256",
          "name": "",
          "type": "uint256"
        }
      ],
      "name": "transferFrom",
      "outputs": [],
      "stateMutability": "nonpayable",
      "type": "function"
    }
  ],
  "bytecode": "0x608060405234801561000f575f5ffd5b5060405161209b38038061209b83398101604081905261002e9161011b565b6040518060400160405280600c81526020016b0a0e4dec8eac6ca84c2e8c6d60a31b8152506040518060400160405280600381526020016214109560ea1b815250815f908161007d91906101e0565b50600161008a82826101e0565b5050506001600160a01b0381166100f65760405162461bcd60e51b815260206004820152602660248201527f50726f6475636542617463683a20496e76616c6964207265676973747279206160448201526564647265737360d01b606482015260840160405180910390fd5b600680546001600160a01b0319166001600160a01b039290921691909117905561029a565b5f6020828403121561012b575f5ffd5b81516001600160a01b0381168114610141575f5ffd5b9392505050565b634e487b7160e01b5f52604160045260245ffd5b600181811c9082168061017057607f821691505b60208210810361018e57634e487b7160e01b5f52602260045260245ffd5b50919050565b601f8211156101db57805f5260205f20601f840160051c810160208510156101b95750805b601f840160051c820191505b818110156101d8575f81556001016101c5565b50505b505050565b81516001600160401b038111156101f9576101f9610148565b61020d81610207845461015c565b84610194565b6020601f82116001811461023f575f83156102285750848201515b5f19600385901b1c1916600184901b1784556101d8565b5f84815260208120601f198516915b8281101561026e578785015182556020948501946001909201910161024e565b508482101561028b57868401515f19600387901b60f8161c191681555b50505050600190811b01905550565b611df4806102a75f395ff3fe608060405234801561000f575f5ffd5b5060043610610148575f3560e01c806370a08231116100bf578063b32c4d8d11610079578063b32c4d8d146102e5578063b88d4fde1461030a578063c87b56dd14610318578063e985e9c51461032b578063f561be641461033e578063ff9d757614610351575f5ffd5b806370a08231146102625780637b10399914610275578063815fc9bb1461028857806395d89b411461029b578063a22cb465146102a3578063b20a5dbe146102b6575f5ffd5b806323b872dd1161011057806323b872dd146101dc5780632931a108146101ef57806329aa00251461020257806342842e0e1461022a5780636352211e1461023d57806369ff6abb14610250575f5ffd5b806301ffc9a71461014c57806302eb27c51461017457806306fdde0314610189578063081812fc1461019e578063095ea7b3146101c9575b5f5ffd5b61015f61015a3660046117ca565b610371565b60405190151581526020015b60405180910390f35b6101876101823660046117e5565b6103c2565b005b6101916105f5565b60405161016b9190611833565b6101b16101ac366004611845565b610684565b6040516001600160a01b03909116815260200161016b565b6101876101d7366004611877565b6106ab565b6101876101ea36600461189f565b6106ba565b6101876101fd366004611845565b61071c565b6101b1610210366004611845565b60096020525f90815260409020546001600160a01b031681565b61018761023836600461189f565b610898565b6101b161024b366004611845565b6108b7565b600a545b60405190815260200161016b565b6102546102703660046118d9565b6108c1565b6006546101b1906001600160a01b031681565b6101876102963660046118f2565b610906565b610191610b0f565b6101876102b1366004611929565b610b1e565b6102d86102c4366004611845565b60086020525f908152604090205460ff1681565b60405161016b9190611972565b6102f86102f3366004611845565b610b29565b60405161016b96959493929190611998565b6101876101ea366004611a68565b610191610326366004611845565b610bef565b61015f610339366004611adf565b610c60565b61018761034c366004611b07565b610c8d565b61036461035f366004611845565b610f56565b60405161016b9190611b66565b5f6001600160e01b031982166380ac58cd60e01b14806103a157506001600160e01b03198216635b5e139f60e01b145b806103bc57506301ffc9a760e01b6001600160e01b03198316145b92915050565b5f828152600960205260409020546001600160a01b0316331461043b5760405162461bcd60e51b815260206004820152602660248201527f50726f6475636542617463683a204e6f74207468652070656e64696e6720726560448201526531b2b4bb32b960d11b60648201526084015b60405180910390fd5b5f8281526009602052604080822080546001600160a01b03191690556006549051630b9eb40b60e31b81523360048201526001600160a01b0390911690635cf5a05890602401602060405180830381865afa15801561049c573d5f5f3e3d5ffd5b505050506040513d601f19601f820116820180604052508101906104c09190611ba8565b905060018160038111156104d6576104d661195e565b036104ff575f83815260086020526040902080546001919060ff191682805b0217905550610569565b60028160038111156105135761051361195e565b03610537575f83815260086020526040902080546002919060ff19166001836104f5565b600381600381111561054b5761054b61195e565b03610569575f838152600860205260409020805460ff191660031790555b5f8381526007602090815260408220600180820180546001600160a01b031916331790556006909101805491820181558352908220018390556105ab846108b7565b90506105b8813386610fb8565b604051428152339085907f3783f70b0cfaff75044fc00b73a32aa28fb06113e9e0b28e8a2cc2e97f573c329060200160405180910390a350505050565b60605f805461060390611bc6565b80601f016020809104026020016040519081016040528092919081815260200182805461062f90611bc6565b801561067a5780601f106106515761010080835404028352916020019161067a565b820191905f5260205f20905b81548152906001019060200180831161065d57829003601f168201915b5050505050905090565b5f61068e8261106b565b505f828152600460205260409020546001600160a01b03166103bc565b6106b68282336110a3565b5050565b60405162461bcd60e51b815260206004820152603160248201527f50726f6475636542617463683a20557365207472616e73666572437573746f6460448201527079202b20616363657074437573746f647960781b6064820152608401610432565b33610726826108b7565b6001600160a01b03161461077c5760405162461bcd60e51b815260206004820152601b60248201527f50726f6475636542617463683a204e6f7420746865206f776e657200000000006044820152606401610432565b600654604051630b9eb40b60e31b81523360048201526003916001600160a01b031690635cf5a05890602401602060405180830381865afa1580156107c3573d5f5f3e3d5ffd5b505050506040513d601f19601f820116820180604052508101906107e79190611ba8565b60038111156107f8576107f861195e565b146108535760405162461bcd60e51b815260206004820152602560248201527f50726f6475636542617463683a204f6e6c792072657461696c6572732063616e604482015264081cd95b1b60da1b6064820152608401610432565b5f81815260086020526040808220805460ff1916600417905551339183917fd12e87d39efcabebb12f6540fdd3600b2359cd34e3fb3809747213eef503b4a59190a350565b6108b283838360405180602001604052805f8152506106ba565b505050565b5f6103bc8261106b565b5f6001600160a01b0382166108eb576040516322718ad960e21b81525f6004820152602401610432565b506001600160a01b03165f9081526003602052604090205490565b33610910836108b7565b6001600160a01b0316146109705760405162461bcd60e51b815260206004820152602160248201527f50726f6475636542617463683a204e6f742074686520746f6b656e206f776e656044820152603960f91b6064820152608401610432565b6006546040516304dc14fd60e31b81526001600160a01b038381166004830152909116906326e0a7e890602401602060405180830381865afa1580156109b8573d5f5f3e3d5ffd5b505050506040513d601f19601f820116820180604052508101906109dc9190611bfe565b610a455760405162461bcd60e51b815260206004820152603460248201527f50726f6475636542617463683a205265636569766572206973206e6f742061206044820152731d995c9a599a5959081c185c9d1a58da5c185b9d60621b6064820152608401610432565b60045f8381526008602052604090205460ff166004811115610a6957610a6961195e565b03610ab65760405162461bcd60e51b815260206004820181905260248201527f50726f6475636542617463683a20426174636820616c726561647920736f6c646044820152606401610432565b5f8281526009602052604080822080546001600160a01b0319166001600160a01b03851690811790915590519091339185917f99bd7e49d39c5869bbabb5b3f071dad09f21e73c013e0df90322777354226f3491a45050565b60606001805461060390611bc6565b6106b63383836110b0565b60076020525f90815260409020805460018201546002830154600384015460048501805494956001600160a01b039094169492939192610b6890611bc6565b80601f0160208091040260200160405190810160405280929190818152602001828054610b9490611bc6565b8015610bdf5780601f10610bb657610100808354040283529160200191610bdf565b820191905f5260205f20905b815481529060010190602001808311610bc257829003601f168201915b5050505050908060050154905086565b6060610bfa8261106b565b505f610c1060408051602081019091525f815290565b90505f815111610c2e5760405180602001604052805f815250610c59565b80610c3884611177565b604051602001610c49929190611c30565b6040516020818303038152906040525b9392505050565b6001600160a01b039182165f90815260056020908152604080832093909416825291909152205460ff1690565b6006546040516304dc14fd60e31b81523360048201526001600160a01b03909116906326e0a7e890602401602060405180830381865afa158015610cd3573d5f5f3e3d5ffd5b505050506040513d601f19601f82011682018060405250810190610cf79190611bfe565b610d5d5760405162461bcd60e51b815260206004820152603160248201527f50726f6475636542617463683a204f6e6c7920766572696669656420706172746044820152701a58da5c185b9d1cc818d85b881b5a5b9d607a1b6064820152608401610432565b600654604051630b9eb40b60e31b81523360048201525f916001600160a01b031690635cf5a05890602401602060405180830381865afa158015610da3573d5f5f3e3d5ffd5b505050506040513d601f19601f82011682018060405250810190610dc79190611ba8565b6003811115610dd857610dd861195e565b14610e315760405162461bcd60e51b815260206004820152602360248201527f50726f6475636542617463683a204f6e6c79204641524d4552732063616e206d6044820152621a5b9d60ea1b6064820152608401610432565b5f600a5f8154610e4090611c44565b9182905550604080515f80825261010082018352602080830185815233848601908152606085018b8152608086018b815260a087018b81524260c089015260e088018890528987526007909552969094208251815590516001820180546001600160a01b0319166001600160a01b0390921691909117905592516002840155935160038301555193945090926004820190610edb9082611cac565b5060a0820151600582015560c08201518051610f01916006840191602090910190611755565b5050505f828152600860205260409020805460ff19169055610f233383611207565b604051339083907f60d658bf0002e1b552459902f2664f03fcd916bfb98b69a823d3334bbad143e7905f90a35050505050565b5f81815260076020908152604091829020600601805483518184028101840190945280845260609392830182828015610fac57602002820191905f5260205f20905b815481526020019060010190808311610f98575b50505050509050919050565b6001600160a01b038216610fe157604051633250574960e11b81525f6004820152602401610432565b5f610fed83835f611220565b90506001600160a01b03811661101957604051637e27328960e01b815260048101839052602401610432565b836001600160a01b0316816001600160a01b031614611065576040516364283d7b60e01b81526001600160a01b0380861660048301526024820184905282166044820152606401610432565b50505050565b5f818152600260205260408120546001600160a01b0316806103bc57604051637e27328960e01b815260048101849052602401610432565b6108b28383836001611312565b6001600160a01b0383166110d95760405163a9fbf51f60e01b81525f6004820152602401610432565b6001600160a01b03821661110b57604051630b61174360e31b81526001600160a01b0383166004820152602401610432565b6001600160a01b038381165f81815260056020908152604080832094871680845294825291829020805460ff191686151590811790915591519182527f17307eab39ab6107e8899845ad3d59bd9653f200f220920489ca2b5937696c31910160405180910390a3505050565b60605f61118383611416565b60010190505f8167ffffffffffffffff8111156111a2576111a26119dd565b6040519080825280601f01601f1916602001820160405280156111cc576020820181803683370190505b5090508181016020015b5f19016f181899199a1a9b1b9c1cb0b131b232b360811b600a86061a8153600a85049450846111d657509392505050565b6106b6828260405180602001604052805f8152506114ed565b5f828152600260205260408120546001600160a01b039081169083161561124c5761124c818486611504565b6001600160a01b03811615611286576112675f855f5f611312565b6001600160a01b0381165f90815260036020526040902080545f190190555b6001600160a01b038516156112b4576001600160a01b0385165f908152600360205260409020805460010190555b5f8481526002602052604080822080546001600160a01b0319166001600160a01b0389811691821790925591518793918516917fddf252ad1be2c89b69c2b068fc378daa952ba7f163c4a11628f55a4df523b3ef91a4949350505050565b808061132657506001600160a01b03821615155b156113e7575f6113358461106b565b90506001600160a01b038316158015906113615750826001600160a01b0316816001600160a01b031614155b801561137457506113728184610c60565b155b1561139d5760405163a9fbf51f60e01b81526001600160a01b0384166004820152602401610432565b81156113e55783856001600160a01b0316826001600160a01b03167f8c5be1e5ebec7d5bd14f71427d1e84f3dd0314c0f7b2291e5b200ac8c7c3b92560405160405180910390a45b505b50505f90815260046020526040902080546001600160a01b0319166001600160a01b0392909216919091179055565b5f8072184f03e93ff9f4daa797ed6e38ed64bf6a1f0160401b83106114545772184f03e93ff9f4daa797ed6e38ed64bf6a1f0160401b830492506040015b6d04ee2d6d415b85acef81000000008310611480576d04ee2d6d415b85acef8100000000830492506020015b662386f26fc10000831061149e57662386f26fc10000830492506010015b6305f5e10083106114b6576305f5e100830492506008015b61271083106114ca57612710830492506004015b606483106114dc576064830492506002015b600a83106103bc5760010192915050565b6114f78383611568565b6108b2335f8585856115c9565b61150f8383836116f1565b6108b2576001600160a01b03831661153d57604051637e27328960e01b815260048101829052602401610432565b60405163177e802f60e01b81526001600160a01b038316600482015260248101829052604401610432565b6001600160a01b03821661159157604051633250574960e11b81525f6004820152602401610432565b5f61159d83835f611220565b90506001600160a01b038116156108b2576040516339e3563760e11b81525f6004820152602401610432565b6001600160a01b0383163b156116ea57604051630a85bd0160e11b81526001600160a01b0384169063150b7a029061160b908890889087908790600401611d67565b6020604051808303815f875af1925050508015611645575060408051601f3d908101601f1916820190925261164291810190611da3565b60015b6116ac573d808015611672576040519150601f19603f3d011682016040523d82523d5f602084013e611677565b606091505b5080515f036116a457604051633250574960e11b81526001600160a01b0385166004820152602401610432565b805160208201fd5b6001600160e01b03198116630a85bd0160e11b146116e857604051633250574960e11b81526001600160a01b0385166004820152602401610432565b505b5050505050565b5f6001600160a01b0383161580159061174d5750826001600160a01b0316846001600160a01b0316148061172a575061172a8484610c60565b8061174d57505f828152600460205260409020546001600160a01b038481169116145b949350505050565b828054828255905f5260205f2090810192821561178e579160200282015b8281111561178e578251825591602001919060010190611773565b5061179a92915061179e565b5090565b5b8082111561179a575f815560010161179f565b6001600160e01b0319811681146117c7575f5ffd5b50565b5f602082840312156117da575f5ffd5b8135610c59816117b2565b5f5f604083850312156117f6575f5ffd5b50508035926020909101359150565b5f81518084528060208401602086015e5f602082860101526020601f19601f83011685010191505092915050565b602081525f610c596020830184611805565b5f60208284031215611855575f5ffd5b5035919050565b80356001600160a01b0381168114611872575f5ffd5b919050565b5f5f60408385031215611888575f5ffd5b6118918361185c565b946020939093013593505050565b5f5f5f606084860312156118b1575f5ffd5b6118ba8461185c565b92506118c86020850161185c565b929592945050506040919091013590565b5f602082840312156118e9575f5ffd5b610c598261185c565b5f5f60408385031215611903575f5ffd5b823591506119136020840161185c565b90509250929050565b80151581146117c7575f5ffd5b5f5f6040838503121561193a575f5ffd5b6119438361185c565b915060208301356119538161191c565b809150509250929050565b634e487b7160e01b5f52602160045260245ffd5b602081016005831061199257634e487b7160e01b5f52602160045260245ffd5b91905290565b86815260018060a01b038616602082015284604082015283606082015260c060808201525f6119ca60c0830185611805565b90508260a0830152979650505050505050565b634e487b7160e01b5f52604160045260245ffd5b5f5f67ffffffffffffffff841115611a0b57611a0b6119dd565b50604051601f19601f85018116603f0116810181811067ffffffffffffffff82111715611a3a57611a3a6119dd565b604052838152905080828401851015611a51575f5ffd5b838360208301375f60208583010152509392505050565b5f5f5f5f60808587031215611a7b575f5ffd5b611a848561185c565b9350611a926020860161185c565b925060408501359150606085013567ffffffffffffffff811115611ab4575f5ffd5b8501601f81018713611ac4575f5ffd5b611ad3878235602084016119f1565b91505092959194509250565b5f5f60408385031215611af0575f5ffd5b611af98361185c565b91506119136020840161185c565b5f5f5f60608486031215611b19575f5ffd5b8335925060208401359150604084013567ffffffffffffffff811115611b3d575f5ffd5b8401601f81018613611b4d575f5ffd5b611b5c868235602084016119f1565b9150509250925092565b602080825282518282018190525f918401906040840190835b81811015611b9d578351835260209384019390920191600101611b7f565b509095945050505050565b5f60208284031215611bb8575f5ffd5b815160048110610c59575f5ffd5b600181811c90821680611bda57607f821691505b602082108103611bf857634e487b7160e01b5f52602260045260245ffd5b50919050565b5f60208284031215611c0e575f5ffd5b8151610c598161191c565b5f81518060208401855e5f93019283525090919050565b5f61174d611c3e8386611c19565b84611c19565b5f60018201611c6157634e487b7160e01b5f52601160045260245ffd5b5060010190565b601f8211156108b257805f5260205f20601f840160051c81016020851015611c8d5750805b601f840160051c820191505b818110156116ea575f8155600101611c99565b815167ffffffffffffffff811115611cc657611cc66119dd565b611cda81611cd48454611bc6565b84611c68565b6020601f821160018114611d0c575f8315611cf55750848201515b5f19600385901b1c1916600184901b1784556116ea565b5f84815260208120601f198516915b82811015611d3b5787850151825560209485019460019092019101611d1b565b5084821015611d5857868401515f19600387901b60f8161c191681555b50505050600190811b01905550565b6001600160a01b03858116825284166020820152604081018390526080606082018190525f90611d9990830184611805565b9695505050505050565b5f60208284031215611db3575f5ffd5b8151610c59816117b256fea26469706673582212201f2cacef27987074cb84cb9019871464ad380193255fa5c5c392078d475a580164736f6c634300081c0033",
  "linkReferences": {},
  "deployedLinkReferences": {}
}