{
  "_format": "hh-sol-artifact-1",
  "contractName": "SubsidyEngine",
  "sourceName": "contracts/SubsidyEngine.sol",
  "abi": [
    {
      "inputs": [
        {
          "internalType": "address",
          "name": "initialOwner",
          "type": "address"
        },
        {
          "internalType": "address",
          "name": "_farmerRegistry",
          "type": "address"
        }
      ],
      "stateMutability": "nonpayable",
      "type": "constructor"
    },
    {
      "inputs": [
        {
          "internalType": "address",
          "name": "owner",
          "type": "address"
        }
      ],
      "name": "OwnableInvalidOwner",
      "type": "error"
    },
    {
      "inputs": [
        {
          "internalType": "address",
          "name": "account",
          "type": "address"
        }
      ],
      "name": "OwnableUnauthorizedAccount",
      "type": "error"
    },
    {
      "anonymous": false,
      "inputs": [
        {
          "indexed": true,
          "internalType": "address",
          "name": "previousOwner",
          "type": "address"
        },
        {
          "indexed": true,
          "internalType": "address",
          "name": "newOwner",
          "type": "address"
        }
      ],
      "name": "OwnershipTransferred",
      "type": "event"
    },
    {
      "anonymous": false,
      "inputs": [
        {
          "indexed": false,
          "internalType": "address",
          "name": "depositor",
          "type": "address"
        },
        {
          "indexed": false,
          "internalType": "uint256",
          "name": "amount",
          "type": "uint256"
        },
        {
          "indexed": false,
          "internalType": "string",
          "name": "source",
          "type": "string"
        }
      ],
      "name": "SubsidyDeposited",
      "type": "event"
    },
    {
      "anonymous": false,
      "inputs": [
        {
          "indexed": false,
          "internalType": "address",
          "name": "farmer",
          "type": "address"
        },
        {
          "indexed": false,
          "internalType": "uint256",
          "name": "amount",
          "type": "uint256"
        },
        {
          "indexed": false,
          "internalType": "uint256",
          "name": "priorityScore",
          "type": "uint256"
        }
      ],
      "name": "SubsidyDisbursed",
      "type": "event"
    },
    {
      "anonymous": false,
      "inputs": [
        {
          "indexed": false,
          "internalType": "address",
          "name": "farmer",
          "type": "address"
        },
        {
          "indexed": false,
          "internalType": "uint256",
          "name": "priorityScore",
          "type": "uint256"
        }
      ],
      "name": "SubsidyQueued",
      "type": "event"
    },
    {
      "inputs": [
        {
          "internalType": "string",
          "name": "source",
          "type": "string"
        }
      ],
      "name": "depositSubsidy",
      "outputs": [],
      "stateMutability": "payable",
      "type": "function"
    },
    {
      "inputs": [
        {
          "internalType": "uint256",
          "name": "",
          "type": "uint256"
        }
      ],
      "name": "disbursementHistory",
      "outputs": [
        {
          "internalType": "address",
          "name": "farmer",
          "type": "address"
        },
        {
          "internalType": "uint256",
          "name": "amount",
          "type": "uint256"
        },
        {
          "internalType": "uint256",
          "name": "timestamp",
          "type": "uint256"
        },
        {
          "internalType": "string",
          "name": "source",
          "type": "string"
        },
        {
          "internalType": "uint256",
          "name": "priorityScore",
          "type": "uint256"
        }
      ],
      "stateMutability": "view",
      "type": "function"
    },
    {
      "inputs": [],
      "name": "disbursementPerFarmer",
      "outputs": [
        {
          "internalType": "uint256",
          "name": "",
          "type": "uint256"
        }
      ],
      "stateMutability": "view",
      "type": "function"
    },
    {
      "inputs": [],
      "name": "farmerRegistry",
      "outputs": [
        {
          "internalType": "contract FarmerRegistry",
          "name": "",
          "type": "address"
        }
      ],
      "stateMutability": "view",
      "type": "function"
    },
    {
      "inputs": [],
      "name": "getDisbursementHistory",
      "outputs": [
        {
          "components": [
            {
              "internalType": "address",
              "name": "farmer",
              "type": "address"
            },
            {
              "internalType": "uint256",
              "name": "amount",
              "type": "uint256"
            },
            {
              "internalType": "uint256",
              "name": "timestamp",
              "type": "uint256"
            },
            {
              "internalType": "string",
              "name": "source",
              "type": "string"
            },
            {
              "internalType": "uint256",
              "name": "priorityScore",
              "type": "uint256"
            }
          ],
          "internalType": "struct SubsidyEngine.DisbursementRecord[]",
          "name": "",
          "type": "tuple[]"
        }
      ],
      "stateMutability": "view",
      "type": "function"
    },
    {
      "inputs": [],
      "name": "getPriorityQueue",
      "outputs": [
        {
          "internalType": "address[]",
          "name": "farmers",
          "type": "address[]"
        },
        {
          "internalType": "uint256[]",
          "name": "scores",
          "type": "uint256[]"
        }
      ],
      "stateMutability": "view",
      "type": "function"
    },
    {
      "inputs": [
        {
          "internalType": "address",
          "name": "",
          "type": "address"
        }
      ],
      "name": "lastDisbursementTimestamp",
      "outputs": [
        {
          "internalType": "uint256",
          "name": "",
          "type": "uint256"
        }
      ],
      "stateMutability": "view",
      "type": "function"
    },
    {
      "inputs": [],
      "name": "owner",
      "outputs": [
        {
          "internalType": "address",
          "name": "",
          "type": "address"
        }
      ],
      "stateMutability": "view",
      "type": "function"
    },
    {
      "inputs": [],
      "name": "poolBalance",
      "outputs": [
        {
          "internalType": "uint256",
          "name": "",
          "type": "uint256"
        }
      ],
      "stateMutability": "view",
      "type": "function"
    },
    {
      "inputs": [
        {
          "internalType": "uint256",
          "name": "batchSize",
          "type": "uint256"
        }
      ],
      "name": "processDisbursements",
      "outputs": [],
      "stateMutability": "nonpayable",
      "type": "function"
    },
    {
      "inputs": [],
      "name": "renounceOwnership",
      "outputs": [],
      "stateMutability": "nonpayable",
      "type": "function"
    },
    {
      "inputs": [
        {
          "internalType": "uint256",
          "name": "amount",
          "type": "uint256"
        }
      ],
      "name": "setDisbursementAmount",
      "outputs": [],
      "stateMutability": "nonpayable",
      "type": "function"
    },
    {
      "inputs": [
        {
          "internalType": "address",
          "name": "",
          "type": "address"
        }
      ],
      "name": "totalReceived",
      "outputs": [
        {
          "internalType": "uint256",
          "name": "",
          "type": "uint256"
        }
      ],
      "stateMutability": "view",
      "type": "function"
    },
    {
      "inputs": [
        {
          "internalType": "address",
          "name": "newOwner",
          "type": "address"
        }
      ],
      "name": "transferOwnership",
      "outputs": [],
      "stateMutability": "nonpayable",
      "type": "function"
    },
    {
      "stateMutability": "payable",
      "type": "receive"
    }
  ],
  "bytecode": "0x60806040523480156200001157600080fd5b5060405162001afb38038062001afb83398101604081905262000034916200010f565b816001600160a01b0381166200006457604051631e4fbdf760e01b81526000600482015260240160405180910390fd5b6200006f81620000a2565b50600180546001600160a01b0319166001600160a01b039290921691909117905550662386f26fc1000060065562000147565b600080546001600160a01b038381166001600160a01b0319831681178455604051919092169283917f8be0079c531659141344cd1fd0a4f28419497f9722a3daafe3b4186f6b6457e09190a35050565b80516001600160a01b03811681146200010a57600080fd5b919050565b600080604083850312156200012357600080fd5b6200012e83620000f2565b91506200013e60208401620000f2565b90509250929050565b6119a480620001576000396000f3fe6080604052600436106100e15760003560e01c80639101bdaf1161007f578063c387e5b511610059578063c387e5b514610253578063dc23d90b14610284578063f2fde38b146102a7578063fbc5aee6146102c757600080fd5b80639101bdaf1461020a57806396365d441461022a578063b8fe4ecd1461024057600080fd5b80635467e6e7116100bb5780635467e6e71461019f578063574f3786146101b5578063715018a6146101d75780638da5cb5b146101ec57600080fd5b80630da80980146101055780631af50c5e146101425780634df9cfb31461016457600080fd5b366101005734600260008282546100f891906110fa565b925050819055005b600080fd5b34801561011157600080fd5b50600154610125906001600160a01b031681565b6040516001600160a01b0390911681526020015b60405180910390f35b34801561014e57600080fd5b5061016261015d366004611113565b6102f4565b005b34801561017057600080fd5b5061019161017f366004611141565b60036020526000908152604090205481565b604051908152602001610139565b3480156101ab57600080fd5b5061019160065481565b3480156101c157600080fd5b506101ca610301565b60405161013991906111b5565b3480156101e357600080fd5b50610162610427565b3480156101f857600080fd5b506000546001600160a01b0316610125565b34801561021657600080fd5b50610162610225366004611113565b61043b565b34801561023657600080fd5b5061019160025481565b61016261024e3660046112f0565b610b83565b34801561025f57600080fd5b5061027361026e366004611113565b610be1565b60405161013995949392919061136f565b34801561029057600080fd5b50610299610cb9565b6040516101399291906113ae565b3480156102b357600080fd5b506101626102c2366004611141565b61102c565b3480156102d357600080fd5b506101916102e2366004611141565b60046020526000908152604090205481565b6102fc611067565b600655565b60606005805480602002602001604051908101604052809291908181526020016000905b8282101561041e5760008481526020908190206040805160a0810182526005860290920180546001600160a01b0316835260018101549383019390935260028301549082015260038201805491929160608401919061038390611432565b80601f01602080910402602001604051908101604052809291908181526020018280546103af90611432565b80156103fc5780601f106103d1576101008083540402835291602001916103fc565b820191906000526020600020905b8154815290600101906020018083116103df57829003601f168201915b5050505050815260200160048201548152505081526020019060010190610325565b50505050905090565b61042f611067565b6104396000611094565b565b610443611067565b600154604080516314da553960e21b815290516000926001600160a01b03169163536954e491600480830192869291908290030181865afa15801561048c573d6000803e3d6000fd5b505050506040513d6000823e601f3d908101601f191682016040526104b4919081019061149f565b805190915060008190036104c757505050565b6000816001600160401b038111156104e1576104e161125a565b60405190808252806020026020018201604052801561050a578160200160208202803683370190505b5090506000826001600160401b038111156105275761052761125a565b604051908082528060200260200182016040528015610550578160200160208202803683370190505b5090506000805b848110156107275760015486516000916001600160a01b03169063e7609c169089908590811061058957610589611538565b60200260200101516040518263ffffffff1660e01b81526004016105bc91906001600160a01b0391909116815260200190565b600060405180830381865afa1580156105d9573d6000803e3d6000fd5b505050506040513d6000823e601f3d908101601f191682016040526106019190810190611646565b905080610120015180156106185750806101400151155b1561071e5786828151811061062f5761062f611538565b602002602001015185848151811061064957610649611538565b6001600160a01b039283166020918202929092010152600154885191169063a7c597889089908590811061067f5761067f611538565b60200260200101516040518263ffffffff1660e01b81526004016106b291906001600160a01b0391909116815260200190565b602060405180830381865afa1580156106cf573d6000803e3d6000fd5b505050506040513d601f19601f820116820180604052508101906106f391906117e9565b84848151811061070557610705611538565b60209081029190910101528261071a81611802565b9350505b50600101610557565b508060000361073857505050505050565b60008187106107475781610749565b865b905060005b818110156108a35760006107638260016110fa565b90505b8381101561089a5784828151811061078057610780611538565b602002602001015185828151811061079a5761079a611538565b60200260200101511115610892578481815181106107ba576107ba611538565b60200260200101518583815181106107d4576107d4611538565b60200260200101518684815181106107ee576107ee611538565b6020026020010187848151811061080757610807611538565b602002602001018281525082815250505085818151811061082a5761082a611538565b602002602001015186838151811061084457610844611538565b602002602001015187848151811061085e5761085e611538565b6020026020010188848151811061087757610877611538565b6001600160a01b039384166020918202929092010152911690525b600101610766565b5060010161074e565b5060005b81811015610b785760065460025410610b785760008582815181106108ce576108ce611538565b6020026020010151905060008583815181106108ec576108ec611538565b602002602001015190506006546002600082825461090a919061181b565b90915550506006546001600160a01b0383166000908152600360205260408120805490919061093a9084906110fa565b90915550506001600160a01b0382811660008181526004602090815260408083204290819055815160a0810183529485526006548584019081528583019182528251808401909352600e83526d7072696f726974792d717565756560901b938301939093526060850191825260808501879052600580546001810182559481905285517f036b6384b5eca791c62761152d0c79bb0604c104a5fb6f4eb0703f3154bb3db09590910294850180546001600160a01b0319169190971617865591517f036b6384b5eca791c62761152d0c79bb0604c104a5fb6f4eb0703f3154bb3db184015590517f036b6384b5eca791c62761152d0c79bb0604c104a5fb6f4eb0703f3154bb3db2830155519192917f036b6384b5eca791c62761152d0c79bb0604c104a5fb6f4eb0703f3154bb3db390910190610a77908261187f565b506080820151816004015550506000826001600160a01b031660065460405160006040518083038185875af1925050503d8060008114610ad3576040519150601f19603f3d011682016040523d82523d6000602084013e610ad8565b606091505b5050905080610b205760405162461bcd60e51b815260206004820152600f60248201526e151c985b9cd9995c8819985a5b1959608a1b60448201526064015b60405180910390fd5b600654604080516001600160a01b0386168152602081019290925281018390527f2f8a2ec563ac62be0051acbed6c2e3b60f9b773602004b21497bd6d120e22eb99060600160405180910390a15050506001016108a7565b505050505050505b50565b610b8b611067565b3460026000828254610b9d91906110fa565b90915550506040517fa0687f7060024a226c0df9624a236111f7e342dba1a0b72580b072c45ca39e9890610bd69033903490859061193e565b60405180910390a150565b60058181548110610bf157600080fd5b600091825260209091206005909102018054600182015460028301546003840180546001600160a01b03909416955091939092909190610c3090611432565b80601f0160208091040260200160405190810160405280929190818152602001828054610c5c90611432565b8015610ca95780601f10610c7e57610100808354040283529160200191610ca9565b820191906000526020600020905b815481529060010190602001808311610c8c57829003601f168201915b5050505050908060040154905085565b6060806000600160009054906101000a90046001600160a01b03166001600160a01b031663536954e46040518163ffffffff1660e01b8152600401600060405180830381865afa158015610d11573d6000803e3d6000fd5b505050506040513d6000823e601f3d908101601f19168201604052610d39919081019061149f565b8051909150806001600160401b03811115610d5657610d5661125a565b604051908082528060200260200182016040528015610d7f578160200160208202803683370190505b509350806001600160401b03811115610d9a57610d9a61125a565b604051908082528060200260200182016040528015610dc3578160200160208202803683370190505b50925060005b81811015610ecc57828181518110610de357610de3611538565b6020026020010151858281518110610dfd57610dfd611538565b6001600160a01b039283166020918202929092010152600154845191169063a7c5978890859084908110610e3357610e33611538565b60200260200101516040518263ffffffff1660e01b8152600401610e6691906001600160a01b0391909116815260200190565b602060405180830381865afa158015610e83573d6000803e3d6000fd5b505050506040513d601f19601f82011682018060405250810190610ea791906117e9565b848281518110610eb957610eb9611538565b6020908102919091010152600101610dc9565b5060005b81811015611025576000610ee58260016110fa565b90505b8281101561101c57848281518110610f0257610f02611538565b6020026020010151858281518110610f1c57610f1c611538565b6020026020010151111561101457848181518110610f3c57610f3c611538565b6020026020010151858381518110610f5657610f56611538565b6020026020010151868481518110610f7057610f70611538565b60200260200101878481518110610f8957610f89611538565b6020026020010182815250828152505050858181518110610fac57610fac611538565b6020026020010151868381518110610fc657610fc6611538565b6020026020010151878481518110610fe057610fe0611538565b60200260200101888481518110610ff957610ff9611538565b6001600160a01b039384166020918202929092010152911690525b600101610ee8565b50600101610ed0565b5050509091565b611034611067565b6001600160a01b03811661105e57604051631e4fbdf760e01b815260006004820152602401610b17565b610b8081611094565b6000546001600160a01b031633146104395760405163118cdaa760e01b8152336004820152602401610b17565b600080546001600160a01b038381166001600160a01b0319831681178455604051919092169283917f8be0079c531659141344cd1fd0a4f28419497f9722a3daafe3b4186f6b6457e09190a35050565b634e487b7160e01b600052601160045260246000fd5b8082018082111561110d5761110d6110e4565b92915050565b60006020828403121561112557600080fd5b5035919050565b6001600160a01b0381168114610b8057600080fd5b60006020828403121561115357600080fd5b813561115e8161112c565b9392505050565b60005b83811015611180578181015183820152602001611168565b50506000910152565b600081518084526111a1816020860160208601611165565b601f01601f19169290920160200192915050565b600060208083018184528085518083526040925060408601915060408160051b87010184880160005b8381101561124c57888303603f19018552815180516001600160a01b031684528781015188850152868101518785015260608082015160a0828701819052919061122a83880182611189565b60809485015197909401969096525050948701949250908601906001016111de565b509098975050505050505050565b634e487b7160e01b600052604160045260246000fd5b60405161022081016001600160401b03811182821017156112935761129361125a565b60405290565b604051601f8201601f191681016001600160401b03811182821017156112c1576112c161125a565b604052919050565b60006001600160401b038211156112e2576112e261125a565b50601f01601f191660200190565b60006020828403121561130257600080fd5b81356001600160401b0381111561131857600080fd5b8201601f8101841361132957600080fd5b803561133c611337826112c9565b611299565b81815285602083850101111561135157600080fd5b81602084016020830137600091810160200191909152949350505050565b60018060a01b038616815284602082015283604082015260a06060820152600061139c60a0830185611189565b90508260808301529695505050505050565b604080825283519082018190526000906020906060840190828701845b828110156113f05781516001600160a01b0316845292840192908401906001016113cb565b5050508381038285015284518082528583019183019060005b8181101561142557835183529284019291840191600101611409565b5090979650505050505050565b600181811c9082168061144657607f821691505b60208210810361146657634e487b7160e01b600052602260045260246000fd5b50919050565b60006001600160401b038211156114855761148561125a565b5060051b60200190565b805161149a8161112c565b919050565b600060208083850312156114b257600080fd5b82516001600160401b038111156114c857600080fd5b8301601f810185136114d957600080fd5b80516114e76113378261146c565b81815260059190911b8201830190838101908783111561150657600080fd5b928401925b8284101561152d57835161151e8161112c565b8252928401929084019061150b565b979650505050505050565b634e487b7160e01b600052603260045260246000fd5b600082601f83011261155f57600080fd5b815161156d611337826112c9565b81815284602083860101111561158257600080fd5b611593826020830160208701611165565b949350505050565b805160ff8116811461149a57600080fd5b600082601f8301126115bd57600080fd5b815160206115cd6113378361146c565b82815260059290921b840181019181810190868411156115ec57600080fd5b8286015b8481101561162b5780516001600160401b0381111561160f5760008081fd5b61161d8986838b010161154e565b8452509183019183016115f0565b509695505050505050565b8051801515811461149a57600080fd5b60006020828403121561165857600080fd5b81516001600160401b038082111561166f57600080fd5b90830190610220828603121561168457600080fd5b61168c611270565b8251815261169c6020840161148f565b60208201526040830151828111156116b357600080fd5b6116bf8782860161154e565b6040830152506060830151828111156116d757600080fd5b6116e38782860161154e565b6060830152506080830151828111156116fb57600080fd5b6117078782860161154e565b60808301525060a08301518281111561171f57600080fd5b61172b8782860161154e565b60a08301525061173d60c0840161159b565b60c082015260e083015160e0820152610100808401518381111561176057600080fd5b61176c888287016115ac565b8284015250506101209150611782828401611636565b828201526101409150611796828401611636565b91810191909152610160828101519082015261018080830151908201526101a080830151908201526101c080830151908201526101e0808301519082015261020091820151918101919091529392505050565b6000602082840312156117fb57600080fd5b5051919050565b600060018201611814576118146110e4565b5060010190565b8181038181111561110d5761110d6110e4565b601f82111561187a576000816000526020600020601f850160051c810160208610156118575750805b601f850160051c820191505b8181101561187657828155600101611863565b5050505b505050565b81516001600160401b038111156118985761189861125a565b6118ac816118a68454611432565b8461182e565b602080601f8311600181146118e157600084156118c95750858301515b600019600386901b1c1916600185901b178555611876565b600085815260208120601f198616915b82811015611910578886015182559484019460019091019084016118f1565b508582101561192e5787850151600019600388901b60f8161c191681555b5050505050600190811b01905550565b60018060a01b03841681528260208201526060604082015260006119656060830184611189565b9594505050505056fea2646970667358221220ca16839d2b6a40d177c6ae220dcffcd4981b82b61e9a232b05c000ec528a81ff64736f6c63430008180033",
  "linkReferences": {},
  "deployedLinkReferences": {}
}